{
  "_format": "hh3-artifact-1",
  "contractName": "AdminController",
  "sourceName": "contracts/AdminController.sol",
  "abi": [
    {
      "inputs": [
        {
          "internalType": "address",
          "name": "_rwa",
          "type": "address"
        }
      ],
      "stateMutability": "nonpayable",
      "type": "constructor"
    },
    {
      "inputs": [
        {
          "internalType": "address",
          "name": "user",
          "type": "address"
        }
      ],
      "name": "approveKYC",
      "outputs": [],
      "stateMutability": "nonpayable",
      "type": "function"
    },
    {
      "inputs": [
        {
          "internalType": "bytes32",
          "name": "propertyHash",
          "type": "bytes32"
        },
        {
          "internalType": "address",
          "name": "owner",
          "type": "address"
        }
      ],
      "name": "createAndApproveProperty",
      "outputs": [],
      "stateMutability": "nonpayable",
      "type": "function"
    },
    {
      "inputs": [
        {
          "internalType": "bytes32",
          "name": "hash",
          "type": "bytes32"
        }
      ],
      "name": "freezeProperty",
      "outputs": [],
      "stateMutability": "nonpayable",
      "type": "function"
    },
    {
      "inputs": [
        {
          "internalType": "bytes32",
          "name": "hash",
          "type": "bytes32"
        },
        {
          "internalType": "uint256",
          "name": "supply",
          "type": "uint256"
        }
      ],
      "name": "mintTokens",
      "outputs": [],
      "stateMutability": "nonpayable",
      "type": "function"
    },
    {
      "inputs": [
        {
          "internalType": "address",
          "name": "user",
          "type": "address"
        }
      ],
      "name": "rejectKYC",
      "outputs": [],
      "stateMutability": "nonpayable",
      "type": "function"
    },
    {
      "inputs": [],
      "name": "rwa",
      "outputs": [
        {
          "internalType": "contract RealEstateRWA",
          "name": "",
          "type": "address"
        }
      ],
      "stateMutability": "view",
      "type": "function"
    },
    {
      "inputs": [
        {
          "internalType": "bytes32",
          "name": "hash",
          "type": "bytes32"
        }
      ],
      "name": "unfreezeProperty",
      "outputs": [],
      "stateMutability": "nonpayable",
      "type": "function"
    }
  ],
  "bytecode": "0x608060405234801561000f575f80fd5b50604051610897380380610897833981810160405281019061003191906100d4565b805f806101000a81548173ffffffffffffffffffffffffffffffffffffffff021916908373ffffffffffffffffffffffffffffffffffffffff160217905550506100ff565b5f80fd5b5f73ffffffffffffffffffffffffffffffffffffffff82169050919050565b5f6100a38261007a565b9050919050565b6100b381610099565b81146100bd575f80fd5b50565b5f815190506100ce816100aa565b92915050565b5f602082840312156100e9576100e8610076565b5b5f6100f6848285016100c0565b91505092915050565b61078b8061010c5f395ff3fe608060405234801561000f575f80fd5b506004361061007b575f3560e01c8063662f07ff11610059578063662f07ff146100d357806395e4b251146100ef578063af8d309e1461010d578063c42e5888146101295761007b565b80630e27324d1461007f57806321cd2c2a1461009b5780632be5ae82146100b7575b5f80fd5b610099600480360381019061009491906104fc565b610145565b005b6100b560048036038101906100b0919061055a565b6101cd565b005b6100d160048036038101906100cc919061055a565b610255565b005b6100ed60048036038101906100e89190610585565b6102dd565b005b6100f7610368565b604051610104919061061e565b60405180910390f35b6101276004803603810190610122919061066a565b61038b565b005b610143600480360381019061013e91906104fc565b610416565b005b5f8054906101000a900473ffffffffffffffffffffffffffffffffffffffff1673ffffffffffffffffffffffffffffffffffffffff16630e27324d826040518263ffffffff1660e01b815260040161019d91906106b7565b5f604051808303815f87803b1580156101b4575f80fd5b505af11580156101c6573d5f803e3d5ffd5b5050505050565b5f8054906101000a900473ffffffffffffffffffffffffffffffffffffffff1673ffffffffffffffffffffffffffffffffffffffff166321cd2c2a826040518263ffffffff1660e01b815260040161022591906106df565b5f604051808303815f87803b15801561023c575f80fd5b505af115801561024e573d5f803e3d5ffd5b5050505050565b5f8054906101000a900473ffffffffffffffffffffffffffffffffffffffff1673ffffffffffffffffffffffffffffffffffffffff16632be5ae82826040518263ffffffff1660e01b81526004016102ad91906106df565b5f604051808303815f87803b1580156102c4575f80fd5b505af11580156102d6573d5f803e3d5ffd5b5050505050565b5f8054906101000a900473ffffffffffffffffffffffffffffffffffffffff1673ffffffffffffffffffffffffffffffffffffffff1663662f07ff83836040518363ffffffff1660e01b81526004016103379291906106f8565b5f604051808303815f87803b15801561034e575f80fd5b505af1158015610360573d5f803e3d5ffd5b505050505050565b5f8054906101000a900473ffffffffffffffffffffffffffffffffffffffff1681565b5f8054906101000a900473ffffffffffffffffffffffffffffffffffffffff1673ffffffffffffffffffffffffffffffffffffffff1663af8d309e83836040518363ffffffff1660e01b81526004016103e592919061072e565b5f604051808303815f87803b1580156103fc575f80fd5b505af115801561040e573d5f803e3d5ffd5b505050505050565b5f8054906101000a900473ffffffffffffffffffffffffffffffffffffffff1673ffffffffffffffffffffffffffffffffffffffff1663c42e5888826040518263ffffffff1660e01b815260040161046e91906106b7565b5f604051808303815f87803b158015610485575f80fd5b505af1158015610497573d5f803e3d5ffd5b5050505050565b5f80fd5b5f73ffffffffffffffffffffffffffffffffffffffff82169050919050565b5f6104cb826104a2565b9050919050565b6104db816104c1565b81146104e5575f80fd5b50565b5f813590506104f6816104d2565b92915050565b5f602082840312156105115761051061049e565b5b5f61051e848285016104e8565b91505092915050565b5f819050919050565b61053981610527565b8114610543575f80fd5b50565b5f8135905061055481610530565b92915050565b5f6020828403121561056f5761056e61049e565b5b5f61057c84828501610546565b91505092915050565b5f806040838503121561059b5761059a61049e565b5b5f6105a885828601610546565b92505060206105b9858286016104e8565b9150509250929050565b5f819050919050565b5f6105e66105e16105dc846104a2565b6105c3565b6104a2565b9050919050565b5f6105f7826105cc565b9050919050565b5f610608826105ed565b9050919050565b610618816105fe565b82525050565b5f6020820190506106315f83018461060f565b92915050565b5f819050919050565b61064981610637565b8114610653575f80fd5b50565b5f8135905061066481610640565b92915050565b5f80604083850312156106805761067f61049e565b5b5f61068d85828601610546565b925050602061069e85828601610656565b9150509250929050565b6106b1816104c1565b82525050565b5f6020820190506106ca5f8301846106a8565b92915050565b6106d981610527565b82525050565b5f6020820190506106f25f8301846106d0565b92915050565b5f60408201905061070b5f8301856106d0565b61071860208301846106a8565b9392505050565b61072881610637565b82525050565b5f6040820190506107415f8301856106d0565b61074e602083018461071f565b939250505056fea26469706673582212205ab624d764f0d6f359c070810e5c8dac7d85c5940a5b1a163ac5abc83870565764736f6c63430008140033",
  "linkReferences": {},
  "deployedLinkReferences": {},
  "immutableReferences": {},
  "inputSourceName": "project/contracts/AdminController.sol",
  "buildInfoId": "solc-0_8_20-6de0c1a813c17e3f8b9135fdbac2a3d84bad91e4"
}