{
  "_format": "hh3-artifact-1",
  "contractName": "InvestorController",
  "sourceName": "contracts/InvestorController.sol",
  "abi": [
    {
      "inputs": [
        {
          "internalType": "address",
          "name": "_rwa",
          "type": "address"
        }
      ],
      "stateMutability": "nonpayable",
      "type": "constructor"
    },
    {
      "inputs": [
        {
          "internalType": "bytes32",
          "name": "propertyHash",
          "type": "bytes32"
        },
        {
          "internalType": "address",
          "name": "seller",
          "type": "address"
        },
        {
          "internalType": "uint256",
          "name": "amount",
          "type": "uint256"
        },
        {
          "internalType": "uint256",
          "name": "pricePerToken",
          "type": "uint256"
        }
      ],
      "name": "buyTokens",
      "outputs": [],
      "stateMutability": "payable",
      "type": "function"
    },
    {
      "inputs": [],
      "name": "rwa",
      "outputs": [
        {
          "internalType": "contract RealEstateRWA",
          "name": "",
          "type": "address"
        }
      ],
      "stateMutability": "view",
      "type": "function"
    },
    {
      "inputs": [
        {
          "internalType": "bytes32",
          "name": "cnic",
          "type": "bytes32"
        }
      ],
      "name": "submitKYC",
      "outputs": [],
      "stateMutability": "nonpayable",
      "type": "function"
    },
    {
      "inputs": [
        {
          "internalType": "bytes32",
          "name": "propertyHash",
          "type": "bytes32"
        }
      ],
      "name": "withdrawRent",
      "outputs": [],
      "stateMutability": "nonpayable",
      "type": "function"
    }
  ],
  "bytecode": "0x608060405234801561000f575f80fd5b50604051610630380380610630833981810160405281019061003191906100d4565b805f806101000a81548173ffffffffffffffffffffffffffffffffffffffff021916908373ffffffffffffffffffffffffffffffffffffffff160217905550506100ff565b5f80fd5b5f73ffffffffffffffffffffffffffffffffffffffff82169050919050565b5f6100a38261007a565b9050919050565b6100b381610099565b81146100bd575f80fd5b50565b5f815190506100ce816100aa565b92915050565b5f602082840312156100e9576100e8610076565b5b5f6100f6848285016100c0565b91505092915050565b6105248061010c5f395ff3fe60806040526004361061003e575f3560e01c80630383bbce146100425780636114de661461005e5780638e9e88751461008657806395e4b251146100ae575b5f80fd5b61005c60048036038101906100579190610362565b6100d8565b005b348015610069575f80fd5b50610084600480360381019061007f91906103c6565b61016b565b005b348015610091575f80fd5b506100ac60048036038101906100a791906103c6565b6101f3565b005b3480156100b9575f80fd5b506100c261027b565b6040516100cf919061044c565b60405180910390f35b5f8054906101000a900473ffffffffffffffffffffffffffffffffffffffff1673ffffffffffffffffffffffffffffffffffffffff1663f72fd22a34868686866040518663ffffffff1660e01b81526004016101379493929190610492565b5f604051808303818588803b15801561014e575f80fd5b505af1158015610160573d5f803e3d5ffd5b505050505050505050565b5f8054906101000a900473ffffffffffffffffffffffffffffffffffffffff1673ffffffffffffffffffffffffffffffffffffffff1663f844cd7d826040518263ffffffff1660e01b81526004016101c391906104d5565b5f604051808303815f87803b1580156101da575f80fd5b505af11580156101ec573d5f803e3d5ffd5b5050505050565b5f8054906101000a900473ffffffffffffffffffffffffffffffffffffffff1673ffffffffffffffffffffffffffffffffffffffff16638e9e8875826040518263ffffffff1660e01b815260040161024b91906104d5565b5f604051808303815f87803b158015610262575f80fd5b505af1158015610274573d5f803e3d5ffd5b5050505050565b5f8054906101000a900473ffffffffffffffffffffffffffffffffffffffff1681565b5f80fd5b5f819050919050565b6102b4816102a2565b81146102be575f80fd5b50565b5f813590506102cf816102ab565b92915050565b5f73ffffffffffffffffffffffffffffffffffffffff82169050919050565b5f6102fe826102d5565b9050919050565b61030e816102f4565b8114610318575f80fd5b50565b5f8135905061032981610305565b92915050565b5f819050919050565b6103418161032f565b811461034b575f80fd5b50565b5f8135905061035c81610338565b92915050565b5f805f806080858703121561037a5761037961029e565b5b5f610387878288016102c1565b94505060206103988782880161031b565b93505060406103a98782880161034e565b92505060606103ba8782880161034e565b91505092959194509250565b5f602082840312156103db576103da61029e565b5b5f6103e8848285016102c1565b91505092915050565b5f819050919050565b5f61041461040f61040a846102d5565b6103f1565b6102d5565b9050919050565b5f610425826103fa565b9050919050565b5f6104368261041b565b9050919050565b6104468161042c565b82525050565b5f60208201905061045f5f83018461043d565b92915050565b61046e816102a2565b82525050565b61047d816102f4565b82525050565b61048c8161032f565b82525050565b5f6080820190506104a55f830187610465565b6104b26020830186610474565b6104bf6040830185610483565b6104cc6060830184610483565b95945050505050565b5f6020820190506104e85f830184610465565b9291505056fea2646970667358221220934152be3ef213871e3105a233b95a0e7af0ef1d78eec5ada924d70f752f707c64736f6c63430008140033",
  "linkReferences": {},
  "deployedLinkReferences": {},
  "immutableReferences": {},
  "inputSourceName": "project/contracts/InvestorController.sol",
  "buildInfoId": "solc-0_8_20-6de0c1a813c17e3f8b9135fdbac2a3d84bad91e4"
}