{
  "_format": "hh3-artifact-1",
  "contractName": "PropertyOwnerController",
  "sourceName": "contracts/PropertyOwnerController.sol",
  "abi": [
    {
      "inputs": [
        {
          "internalType": "address",
          "name": "_rwa",
          "type": "address"
        }
      ],
      "stateMutability": "nonpayable",
      "type": "constructor"
    },
    {
      "inputs": [
        {
          "internalType": "bytes32",
          "name": "propertyHash",
          "type": "bytes32"
        },
        {
          "internalType": "bytes32",
          "name": "tenantCnic",
          "type": "bytes32"
        },
        {
          "internalType": "uint256",
          "name": "monthlyRent",
          "type": "uint256"
        }
      ],
      "name": "assignTenant",
      "outputs": [],
      "stateMutability": "nonpayable",
      "type": "function"
    },
    {
      "inputs": [
        {
          "internalType": "bytes32",
          "name": "propertyHash",
          "type": "bytes32"
        },
        {
          "internalType": "address",
          "name": "seller",
          "type": "address"
        },
        {
          "internalType": "uint256",
          "name": "amount",
          "type": "uint256"
        },
        {
          "internalType": "uint256",
          "name": "pricePerToken",
          "type": "uint256"
        }
      ],
      "name": "buyTokens",
      "outputs": [],
      "stateMutability": "payable",
      "type": "function"
    },
    {
      "inputs": [],
      "name": "rwa",
      "outputs": [
        {
          "internalType": "contract RealEstateRWA",
          "name": "",
          "type": "address"
        }
      ],
      "stateMutability": "view",
      "type": "function"
    },
    {
      "inputs": [
        {
          "internalType": "bytes32",
          "name": "cnic",
          "type": "bytes32"
        }
      ],
      "name": "submitKYC",
      "outputs": [],
      "stateMutability": "nonpayable",
      "type": "function"
    },
    {
      "inputs": [
        {
          "internalType": "bytes32",
          "name": "propertyHash",
          "type": "bytes32"
        }
      ],
      "name": "withdrawRent",
      "outputs": [],
      "stateMutability": "nonpayable",
      "type": "function"
    }
  ],
  "bytecode": "0x608060405234801561000f575f80fd5b50604051610776380380610776833981810160405281019061003191906100d4565b805f806101000a81548173ffffffffffffffffffffffffffffffffffffffff021916908373ffffffffffffffffffffffffffffffffffffffff160217905550506100ff565b5f80fd5b5f73ffffffffffffffffffffffffffffffffffffffff82169050919050565b5f6100a38261007a565b9050919050565b6100b381610099565b81146100bd575f80fd5b50565b5f815190506100ce816100aa565b92915050565b5f602082840312156100e9576100e8610076565b5b5f6100f6848285016100c0565b91505092915050565b61066a8061010c5f395ff3fe608060405260043610610049575f3560e01c80630383bbce1461004d5780636114de66146100695780638e9e88751461009157806395e4b251146100b9578063aad9a73d146100e3575b5f80fd5b61006760048036038101906100629190610423565b61010b565b005b348015610074575f80fd5b5061008f600480360381019061008a9190610487565b61019e565b005b34801561009c575f80fd5b506100b760048036038101906100b29190610487565b610226565b005b3480156100c4575f80fd5b506100cd6102ae565b6040516100da919061050d565b60405180910390f35b3480156100ee575f80fd5b5061010960048036038101906101049190610526565b6102d1565b005b5f8054906101000a900473ffffffffffffffffffffffffffffffffffffffff1673ffffffffffffffffffffffffffffffffffffffff1663f72fd22a34868686866040518663ffffffff1660e01b815260040161016a94939291906105a3565b5f604051808303818588803b158015610181575f80fd5b505af1158015610193573d5f803e3d5ffd5b505050505050505050565b5f8054906101000a900473ffffffffffffffffffffffffffffffffffffffff1673ffffffffffffffffffffffffffffffffffffffff1663f844cd7d826040518263ffffffff1660e01b81526004016101f691906105e6565b5f604051808303815f87803b15801561020d575f80fd5b505af115801561021f573d5f803e3d5ffd5b5050505050565b5f8054906101000a900473ffffffffffffffffffffffffffffffffffffffff1673ffffffffffffffffffffffffffffffffffffffff16638e9e8875826040518263ffffffff1660e01b815260040161027e91906105e6565b5f604051808303815f87803b158015610295575f80fd5b505af11580156102a7573d5f803e3d5ffd5b5050505050565b5f8054906101000a900473ffffffffffffffffffffffffffffffffffffffff1681565b5f8054906101000a900473ffffffffffffffffffffffffffffffffffffffff1673ffffffffffffffffffffffffffffffffffffffff1663aad9a73d8484846040518463ffffffff1660e01b815260040161032d939291906105ff565b5f604051808303815f87803b158015610344575f80fd5b505af1158015610356573d5f803e3d5ffd5b50505050505050565b5f80fd5b5f819050919050565b61037581610363565b811461037f575f80fd5b50565b5f813590506103908161036c565b92915050565b5f73ffffffffffffffffffffffffffffffffffffffff82169050919050565b5f6103bf82610396565b9050919050565b6103cf816103b5565b81146103d9575f80fd5b50565b5f813590506103ea816103c6565b92915050565b5f819050919050565b610402816103f0565b811461040c575f80fd5b50565b5f8135905061041d816103f9565b92915050565b5f805f806080858703121561043b5761043a61035f565b5b5f61044887828801610382565b9450506020610459878288016103dc565b935050604061046a8782880161040f565b925050606061047b8782880161040f565b91505092959194509250565b5f6020828403121561049c5761049b61035f565b5b5f6104a984828501610382565b91505092915050565b5f819050919050565b5f6104d56104d06104cb84610396565b6104b2565b610396565b9050919050565b5f6104e6826104bb565b9050919050565b5f6104f7826104dc565b9050919050565b610507816104ed565b82525050565b5f6020820190506105205f8301846104fe565b92915050565b5f805f6060848603121561053d5761053c61035f565b5b5f61054a86828701610382565b935050602061055b86828701610382565b925050604061056c8682870161040f565b9150509250925092565b61057f81610363565b82525050565b61058e816103b5565b82525050565b61059d816103f0565b82525050565b5f6080820190506105b65f830187610576565b6105c36020830186610585565b6105d06040830185610594565b6105dd6060830184610594565b95945050505050565b5f6020820190506105f95f830184610576565b92915050565b5f6060820190506106125f830186610576565b61061f6020830185610576565b61062c6040830184610594565b94935050505056fea2646970667358221220d9fad319af4ebbb759772c77606e172f65bcb934f9b6704d14ecff471e72c2bf64736f6c63430008140033",
  "linkReferences": {},
  "deployedLinkReferences": {},
  "immutableReferences": {},
  "inputSourceName": "project/contracts/PropertyOwnerController.sol",
  "buildInfoId": "solc-0_8_20-6de0c1a813c17e3f8b9135fdbac2a3d84bad91e4"
}