{
  "_format": "hh3-artifact-1",
  "contractName": "RealEstateRWA",
  "sourceName": "contracts/RealEstateRWA.sol",
  "abi": [
    {
      "inputs": [],
      "stateMutability": "nonpayable",
      "type": "constructor"
    },
    {
      "inputs": [],
      "name": "AccessControlBadConfirmation",
      "type": "error"
    },
    {
      "inputs": [
        {
          "internalType": "address",
          "name": "account",
          "type": "address"
        },
        {
          "internalType": "bytes32",
          "name": "neededRole",
          "type": "bytes32"
        }
      ],
      "name": "AccessControlUnauthorizedAccount",
      "type": "error"
    },
    {
      "inputs": [
        {
          "internalType": "address",
          "name": "spender",
          "type": "address"
        },
        {
          "internalType": "uint256",
          "name": "allowance",
          "type": "uint256"
        },
        {
          "internalType": "uint256",
          "name": "needed",
          "type": "uint256"
        }
      ],
      "name": "ERC20InsufficientAllowance",
      "type": "error"
    },
    {
      "inputs": [
        {
          "internalType": "address",
          "name": "sender",
          "type": "address"
        },
        {
          "internalType": "uint256",
          "name": "balance",
          "type": "uint256"
        },
        {
          "internalType": "uint256",
          "name": "needed",
          "type": "uint256"
        }
      ],
      "name": "ERC20InsufficientBalance",
      "type": "error"
    },
    {
      "inputs": [
        {
          "internalType": "address",
          "name": "approver",
          "type": "address"
        }
      ],
      "name": "ERC20InvalidApprover",
      "type": "error"
    },
    {
      "inputs": [
        {
          "internalType": "address",
          "name": "receiver",
          "type": "address"
        }
      ],
      "name": "ERC20InvalidReceiver",
      "type": "error"
    },
    {
      "inputs": [
        {
          "internalType": "address",
          "name": "sender",
          "type": "address"
        }
      ],
      "name": "ERC20InvalidSender",
      "type": "error"
    },
    {
      "inputs": [
        {
          "internalType": "address",
          "name": "spender",
          "type": "address"
        }
      ],
      "name": "ERC20InvalidSpender",
      "type": "error"
    },
    {
      "anonymous": false,
      "inputs": [
        {
          "indexed": true,
          "internalType": "address",
          "name": "owner",
          "type": "address"
        },
        {
          "indexed": true,
          "internalType": "address",
          "name": "spender",
          "type": "address"
        },
        {
          "indexed": false,
          "internalType": "uint256",
          "name": "value",
          "type": "uint256"
        }
      ],
      "name": "Approval",
      "type": "event"
    },
    {
      "anonymous": false,
      "inputs": [
        {
          "indexed": true,
          "internalType": "address",
          "name": "user",
          "type": "address"
        }
      ],
      "name": "KYCApproved",
      "type": "event"
    },
    {
      "anonymous": false,
      "inputs": [
        {
          "indexed": true,
          "internalType": "address",
          "name": "user",
          "type": "address"
        }
      ],
      "name": "KYCRejected",
      "type": "event"
    },
    {
      "anonymous": false,
      "inputs": [
        {
          "indexed": true,
          "internalType": "address",
          "name": "user",
          "type": "address"
        },
        {
          "indexed": false,
          "internalType": "bytes32",
          "name": "cnicHash",
          "type": "bytes32"
        }
      ],
      "name": "KYCSubmitted",
      "type": "event"
    },
    {
      "anonymous": false,
      "inputs": [
        {
          "indexed": true,
          "internalType": "bytes32",
          "name": "propertyHash",
          "type": "bytes32"
        }
      ],
      "name": "PropertyApproved",
      "type": "event"
    },
    {
      "anonymous": false,
      "inputs": [
        {
          "indexed": true,
          "internalType": "bytes32",
          "name": "propertyHash",
          "type": "bytes32"
        },
        {
          "indexed": true,
          "internalType": "address",
          "name": "owner",
          "type": "address"
        }
      ],
      "name": "PropertyCreated",
      "type": "event"
    },
    {
      "anonymous": false,
      "inputs": [
        {
          "indexed": true,
          "internalType": "bytes32",
          "name": "propertyHash",
          "type": "bytes32"
        }
      ],
      "name": "PropertyFrozen",
      "type": "event"
    },
    {
      "anonymous": false,
      "inputs": [
        {
          "indexed": true,
          "internalType": "bytes32",
          "name": "propertyHash",
          "type": "bytes32"
        }
      ],
      "name": "PropertyUnfrozen",
      "type": "event"
    },
    {
      "anonymous": false,
      "inputs": [
        {
          "indexed": true,
          "internalType": "bytes32",
          "name": "propertyHash",
          "type": "bytes32"
        },
        {
          "indexed": true,
          "internalType": "address",
          "name": "tenant",
          "type": "address"
        },
        {
          "indexed": false,
          "internalType": "uint256",
          "name": "amount",
          "type": "uint256"
        }
      ],
      "name": "RentPaid",
      "type": "event"
    },
    {
      "anonymous": false,
      "inputs": [
        {
          "indexed": true,
          "internalType": "bytes32",
          "name": "propertyHash",
          "type": "bytes32"
        },
        {
          "indexed": true,
          "internalType": "address",
          "name": "user",
          "type": "address"
        },
        {
          "indexed": false,
          "internalType": "uint256",
          "name": "accSnapshot",
          "type": "uint256"
        },
        {
          "indexed": false,
          "internalType": "uint256",
          "name": "pendingAtSnapshot",
          "type": "uint256"
        }
      ],
      "name": "RentSnapshotted",
      "type": "event"
    },
    {
      "anonymous": false,
      "inputs": [
        {
          "indexed": true,
          "internalType": "bytes32",
          "name": "propertyHash",
          "type": "bytes32"
        },
        {
          "indexed": true,
          "internalType": "address",
          "name": "investor",
          "type": "address"
        },
        {
          "indexed": false,
          "internalType": "uint256",
          "name": "amount",
          "type": "uint256"
        }
      ],
      "name": "RentWithdrawn",
      "type": "event"
    },
    {
      "anonymous": false,
      "inputs": [
        {
          "indexed": true,
          "internalType": "bytes32",
          "name": "role",
          "type": "bytes32"
        },
        {
          "indexed": true,
          "internalType": "bytes32",
          "name": "previousAdminRole",
          "type": "bytes32"
        },
        {
          "indexed": true,
          "internalType": "bytes32",
          "name": "newAdminRole",
          "type": "bytes32"
        }
      ],
      "name": "RoleAdminChanged",
      "type": "event"
    },
    {
      "anonymous": false,
      "inputs": [
        {
          "indexed": true,
          "internalType": "bytes32",
          "name": "role",
          "type": "bytes32"
        },
        {
          "indexed": true,
          "internalType": "address",
          "name": "account",
          "type": "address"
        },
        {
          "indexed": true,
          "internalType": "address",
          "name": "sender",
          "type": "address"
        }
      ],
      "name": "RoleGranted",
      "type": "event"
    },
    {
      "anonymous": false,
      "inputs": [
        {
          "indexed": true,
          "internalType": "bytes32",
          "name": "role",
          "type": "bytes32"
        },
        {
          "indexed": true,
          "internalType": "address",
          "name": "account",
          "type": "address"
        },
        {
          "indexed": true,
          "internalType": "address",
          "name": "sender",
          "type": "address"
        }
      ],
      "name": "RoleRevoked",
      "type": "event"
    },
    {
      "anonymous": false,
      "inputs": [
        {
          "indexed": true,
          "internalType": "bytes32",
          "name": "propertyHash",
          "type": "bytes32"
        },
        {
          "indexed": false,
          "internalType": "bytes32",
          "name": "tenant",
          "type": "bytes32"
        },
        {
          "indexed": false,
          "internalType": "uint256",
          "name": "rentAmount",
          "type": "uint256"
        }
      ],
      "name": "TenantAssigned",
      "type": "event"
    },
    {
      "anonymous": false,
      "inputs": [
        {
          "indexed": true,
          "internalType": "bytes32",
          "name": "propertyHash",
          "type": "bytes32"
        },
        {
          "indexed": false,
          "internalType": "uint256",
          "name": "totalSupply",
          "type": "uint256"
        }
      ],
      "name": "TokensMinted",
      "type": "event"
    },
    {
      "anonymous": false,
      "inputs": [
        {
          "indexed": true,
          "internalType": "bytes32",
          "name": "propertyHash",
          "type": "bytes32"
        },
        {
          "indexed": true,
          "internalType": "address",
          "name": "seller",
          "type": "address"
        },
        {
          "indexed": true,
          "internalType": "address",
          "name": "buyer",
          "type": "address"
        },
        {
          "indexed": false,
          "internalType": "uint256",
          "name": "amount",
          "type": "uint256"
        },
        {
          "indexed": false,
          "internalType": "uint256",
          "name": "pricePerToken",
          "type": "uint256"
        },
        {
          "indexed": false,
          "internalType": "uint256",
          "name": "totalPrice",
          "type": "uint256"
        }
      ],
      "name": "TokensTransferred",
      "type": "event"
    },
    {
      "anonymous": false,
      "inputs": [
        {
          "indexed": true,
          "internalType": "address",
          "name": "from",
          "type": "address"
        },
        {
          "indexed": true,
          "internalType": "address",
          "name": "to",
          "type": "address"
        },
        {
          "indexed": false,
          "internalType": "uint256",
          "name": "value",
          "type": "uint256"
        }
      ],
      "name": "Transfer",
      "type": "event"
    },
    {
      "inputs": [],
      "name": "ADMIN_ROLE",
      "outputs": [
        {
          "internalType": "bytes32",
          "name": "",
          "type": "bytes32"
        }
      ],
      "stateMutability": "view",
      "type": "function"
    },
    {
      "inputs": [],
      "name": "DEFAULT_ADMIN_ROLE",
      "outputs": [
        {
          "internalType": "bytes32",
          "name": "",
          "type": "bytes32"
        }
      ],
      "stateMutability": "view",
      "type": "function"
    },
    {
      "inputs": [],
      "name": "OWNER_ROLE",
      "outputs": [
        {
          "internalType": "bytes32",
          "name": "",
          "type": "bytes32"
        }
      ],
      "stateMutability": "view",
      "type": "function"
    },
    {
      "inputs": [
        {
          "internalType": "bytes32",
          "name": "",
          "type": "bytes32"
        }
      ],
      "name": "accRentPerToken",
      "outputs": [
        {
          "internalType": "uint256",
          "name": "",
          "type": "uint256"
        }
      ],
      "stateMutability": "view",
      "type": "function"
    },
    {
      "inputs": [],
      "name": "adminController",
      "outputs": [
        {
          "internalType": "address",
          "name": "",
          "type": "address"
        }
      ],
      "stateMutability": "view",
      "type": "function"
    },
    {
      "inputs": [],
      "name": "adminControllerSet",
      "outputs": [
        {
          "internalType": "bool",
          "name": "",
          "type": "bool"
        }
      ],
      "stateMutability": "view",
      "type": "function"
    },
    {
      "inputs": [
        {
          "internalType": "address",
          "name": "owner",
          "type": "address"
        },
        {
          "internalType": "address",
          "name": "spender",
          "type": "address"
        }
      ],
      "name": "allowance",
      "outputs": [
        {
          "internalType": "uint256",
          "name": "",
          "type": "uint256"
        }
      ],
      "stateMutability": "view",
      "type": "function"
    },
    {
      "inputs": [
        {
          "internalType": "address",
          "name": "spender",
          "type": "address"
        },
        {
          "internalType": "uint256",
          "name": "value",
          "type": "uint256"
        }
      ],
      "name": "approve",
      "outputs": [
        {
          "internalType": "bool",
          "name": "",
          "type": "bool"
        }
      ],
      "stateMutability": "nonpayable",
      "type": "function"
    },
    {
      "inputs": [
        {
          "internalType": "address",
          "name": "user",
          "type": "address"
        }
      ],
      "name": "approveKYC",
      "outputs": [],
      "stateMutability": "nonpayable",
      "type": "function"
    },
    {
      "inputs": [
        {
          "internalType": "bytes32",
          "name": "propertyHash",
          "type": "bytes32"
        },
        {
          "internalType": "bytes32",
          "name": "tenantCnic",
          "type": "bytes32"
        },
        {
          "internalType": "uint256",
          "name": "monthlyRent",
          "type": "uint256"
        }
      ],
      "name": "assignTenant",
      "outputs": [],
      "stateMutability": "nonpayable",
      "type": "function"
    },
    {
      "inputs": [
        {
          "internalType": "address",
          "name": "account",
          "type": "address"
        }
      ],
      "name": "balanceOf",
      "outputs": [
        {
          "internalType": "uint256",
          "name": "",
          "type": "uint256"
        }
      ],
      "stateMutability": "view",
      "type": "function"
    },
    {
      "inputs": [
        {
          "internalType": "bytes32",
          "name": "",
          "type": "bytes32"
        },
        {
          "internalType": "address",
          "name": "",
          "type": "address"
        }
      ],
      "name": "balances",
      "outputs": [
        {
          "internalType": "uint256",
          "name": "",
          "type": "uint256"
        }
      ],
      "stateMutability": "view",
      "type": "function"
    },
    {
      "inputs": [
        {
          "internalType": "bytes32",
          "name": "propertyHash",
          "type": "bytes32"
        },
        {
          "internalType": "address",
          "name": "owner",
          "type": "address"
        }
      ],
      "name": "createAndApproveProperty",
      "outputs": [],
      "stateMutability": "nonpayable",
      "type": "function"
    },
    {
      "inputs": [],
      "name": "decimals",
      "outputs": [
        {
          "internalType": "uint8",
          "name": "",
          "type": "uint8"
        }
      ],
      "stateMutability": "view",
      "type": "function"
    },
    {
      "inputs": [
        {
          "internalType": "bytes32",
          "name": "propertyHash",
          "type": "bytes32"
        },
        {
          "internalType": "address",
          "name": "seller",
          "type": "address"
        },
        {
          "internalType": "uint256",
          "name": "amount",
          "type": "uint256"
        },
        {
          "internalType": "uint256",
          "name": "pricePerToken",
          "type": "uint256"
        }
      ],
      "name": "executeTrade",
      "outputs": [],
      "stateMutability": "payable",
      "type": "function"
    },
    {
      "inputs": [
        {
          "internalType": "bytes32",
          "name": "propertyHash",
          "type": "bytes32"
        }
      ],
      "name": "freezeProperty",
      "outputs": [],
      "stateMutability": "nonpayable",
      "type": "function"
    },
    {
      "inputs": [
        {
          "internalType": "bytes32",
          "name": "propertyHash",
          "type": "bytes32"
        },
        {
          "internalType": "address",
          "name": "user",
          "type": "address"
        }
      ],
      "name": "getPendingRent",
      "outputs": [
        {
          "internalType": "uint256",
          "name": "pending",
          "type": "uint256"
        }
      ],
      "stateMutability": "view",
      "type": "function"
    },
    {
      "inputs": [
        {
          "internalType": "bytes32",
          "name": "role",
          "type": "bytes32"
        }
      ],
      "name": "getRoleAdmin",
      "outputs": [
        {
          "internalType": "bytes32",
          "name": "",
          "type": "bytes32"
        }
      ],
      "stateMutability": "view",
      "type": "function"
    },
    {
      "inputs": [
        {
          "internalType": "bytes32",
          "name": "role",
          "type": "bytes32"
        },
        {
          "internalType": "address",
          "name": "account",
          "type": "address"
        }
      ],
      "name": "grantRole",
      "outputs": [],
      "stateMutability": "nonpayable",
      "type": "function"
    },
    {
      "inputs": [
        {
          "internalType": "bytes32",
          "name": "role",
          "type": "bytes32"
        },
        {
          "internalType": "address",
          "name": "account",
          "type": "address"
        }
      ],
      "name": "hasRole",
      "outputs": [
        {
          "internalType": "bool",
          "name": "",
          "type": "bool"
        }
      ],
      "stateMutability": "view",
      "type": "function"
    },
    {
      "inputs": [],
      "name": "investorController",
      "outputs": [
        {
          "internalType": "address",
          "name": "",
          "type": "address"
        }
      ],
      "stateMutability": "view",
      "type": "function"
    },
    {
      "inputs": [],
      "name": "investorControllerSet",
      "outputs": [
        {
          "internalType": "bool",
          "name": "",
          "type": "bool"
        }
      ],
      "stateMutability": "view",
      "type": "function"
    },
    {
      "inputs": [
        {
          "internalType": "address",
          "name": "",
          "type": "address"
        }
      ],
      "name": "kycStatus",
      "outputs": [
        {
          "internalType": "enum RealEstateRWA.KYCStatus",
          "name": "",
          "type": "uint8"
        }
      ],
      "stateMutability": "view",
      "type": "function"
    },
    {
      "inputs": [
        {
          "internalType": "bytes32",
          "name": "",
          "type": "bytes32"
        },
        {
          "internalType": "address",
          "name": "",
          "type": "address"
        }
      ],
      "name": "lastSnapshotAcc",
      "outputs": [
        {
          "internalType": "uint256",
          "name": "",
          "type": "uint256"
        }
      ],
      "stateMutability": "view",
      "type": "function"
    },
    {
      "inputs": [
        {
          "internalType": "bytes32",
          "name": "propertyHash",
          "type": "bytes32"
        },
        {
          "internalType": "uint256",
          "name": "totalSupply",
          "type": "uint256"
        }
      ],
      "name": "mintTokens",
      "outputs": [],
      "stateMutability": "nonpayable",
      "type": "function"
    },
    {
      "inputs": [],
      "name": "name",
      "outputs": [
        {
          "internalType": "string",
          "name": "",
          "type": "string"
        }
      ],
      "stateMutability": "view",
      "type": "function"
    },
    {
      "inputs": [],
      "name": "ownerController",
      "outputs": [
        {
          "internalType": "address",
          "name": "",
          "type": "address"
        }
      ],
      "stateMutability": "view",
      "type": "function"
    },
    {
      "inputs": [],
      "name": "ownerControllerSet",
      "outputs": [
        {
          "internalType": "bool",
          "name": "",
          "type": "bool"
        }
      ],
      "stateMutability": "view",
      "type": "function"
    },
    {
      "inputs": [
        {
          "internalType": "bytes32",
          "name": "propertyHash",
          "type": "bytes32"
        }
      ],
      "name": "payRent",
      "outputs": [],
      "stateMutability": "payable",
      "type": "function"
    },
    {
      "inputs": [
        {
          "internalType": "bytes32",
          "name": "",
          "type": "bytes32"
        }
      ],
      "name": "properties",
      "outputs": [
        {
          "internalType": "bool",
          "name": "exists",
          "type": "bool"
        },
        {
          "internalType": "bool",
          "name": "approved",
          "type": "bool"
        },
        {
          "internalType": "bool",
          "name": "tokenized",
          "type": "bool"
        },
        {
          "internalType": "uint256",
          "name": "totalSupply",
          "type": "uint256"
        },
        {
          "internalType": "bytes32",
          "name": "tenant",
          "type": "bytes32"
        },
        {
          "internalType": "uint256",
          "name": "monthlyRent",
          "type": "uint256"
        }
      ],
      "stateMutability": "view",
      "type": "function"
    },
    {
      "inputs": [
        {
          "internalType": "bytes32",
          "name": "",
          "type": "bytes32"
        }
      ],
      "name": "propertyFrozen",
      "outputs": [
        {
          "internalType": "bool",
          "name": "",
          "type": "bool"
        }
      ],
      "stateMutability": "view",
      "type": "function"
    },
    {
      "inputs": [
        {
          "internalType": "bytes32",
          "name": "",
          "type": "bytes32"
        }
      ],
      "name": "propertyOwner",
      "outputs": [
        {
          "internalType": "address",
          "name": "",
          "type": "address"
        }
      ],
      "stateMutability": "view",
      "type": "function"
    },
    {
      "inputs": [
        {
          "internalType": "address",
          "name": "user",
          "type": "address"
        }
      ],
      "name": "rejectKYC",
      "outputs": [],
      "stateMutability": "nonpayable",
      "type": "function"
    },
    {
      "inputs": [
        {
          "internalType": "bytes32",
          "name": "role",
          "type": "bytes32"
        },
        {
          "internalType": "address",
          "name": "callerConfirmation",
          "type": "address"
        }
      ],
      "name": "renounceRole",
      "outputs": [],
      "stateMutability": "nonpayable",
      "type": "function"
    },
    {
      "inputs": [
        {
          "internalType": "bytes32",
          "name": "role",
          "type": "bytes32"
        },
        {
          "internalType": "address",
          "name": "account",
          "type": "address"
        }
      ],
      "name": "revokeRole",
      "outputs": [],
      "stateMutability": "nonpayable",
      "type": "function"
    },
    {
      "inputs": [
        {
          "internalType": "address",
          "name": "controller",
          "type": "address"
        }
      ],
      "name": "setAdminController",
      "outputs": [],
      "stateMutability": "nonpayable",
      "type": "function"
    },
    {
      "inputs": [
        {
          "internalType": "address",
          "name": "controller",
          "type": "address"
        }
      ],
      "name": "setInvestorController",
      "outputs": [],
      "stateMutability": "nonpayable",
      "type": "function"
    },
    {
      "inputs": [
        {
          "internalType": "address",
          "name": "controller",
          "type": "address"
        }
      ],
      "name": "setOwnerController",
      "outputs": [],
      "stateMutability": "nonpayable",
      "type": "function"
    },
    {
      "inputs": [
        {
          "internalType": "address",
          "name": "controller",
          "type": "address"
        }
      ],
      "name": "setTenantController",
      "outputs": [],
      "stateMutability": "nonpayable",
      "type": "function"
    },
    {
      "inputs": [
        {
          "internalType": "bytes32",
          "name": "_cnicHash",
          "type": "bytes32"
        }
      ],
      "name": "submitKYCFor",
      "outputs": [],
      "stateMutability": "nonpayable",
      "type": "function"
    },
    {
      "inputs": [
        {
          "internalType": "bytes4",
          "name": "interfaceId",
          "type": "bytes4"
        }
      ],
      "name": "supportsInterface",
      "outputs": [
        {
          "internalType": "bool",
          "name": "",
          "type": "bool"
        }
      ],
      "stateMutability": "view",
      "type": "function"
    },
    {
      "inputs": [],
      "name": "symbol",
      "outputs": [
        {
          "internalType": "string",
          "name": "",
          "type": "string"
        }
      ],
      "stateMutability": "view",
      "type": "function"
    },
    {
      "inputs": [],
      "name": "tenantController",
      "outputs": [
        {
          "internalType": "address",
          "name": "",
          "type": "address"
        }
      ],
      "stateMutability": "view",
      "type": "function"
    },
    {
      "inputs": [],
      "name": "tenantControllerSet",
      "outputs": [
        {
          "internalType": "bool",
          "name": "",
          "type": "bool"
        }
      ],
      "stateMutability": "view",
      "type": "function"
    },
    {
      "inputs": [],
      "name": "totalSupply",
      "outputs": [
        {
          "internalType": "uint256",
          "name": "",
          "type": "uint256"
        }
      ],
      "stateMutability": "view",
      "type": "function"
    },
    {
      "inputs": [
        {
          "internalType": "address",
          "name": "to",
          "type": "address"
        },
        {
          "internalType": "uint256",
          "name": "value",
          "type": "uint256"
        }
      ],
      "name": "transfer",
      "outputs": [
        {
          "internalType": "bool",
          "name": "",
          "type": "bool"
        }
      ],
      "stateMutability": "nonpayable",
      "type": "function"
    },
    {
      "inputs": [
        {
          "internalType": "address",
          "name": "from",
          "type": "address"
        },
        {
          "internalType": "address",
          "name": "to",
          "type": "address"
        },
        {
          "internalType": "uint256",
          "name": "value",
          "type": "uint256"
        }
      ],
      "name": "transferFrom",
      "outputs": [
        {
          "internalType": "bool",
          "name": "",
          "type": "bool"
        }
      ],
      "stateMutability": "nonpayable",
      "type": "function"
    },
    {
      "inputs": [
        {
          "internalType": "bytes32",
          "name": "propertyHash",
          "type": "bytes32"
        }
      ],
      "name": "unfreezeProperty",
      "outputs": [],
      "stateMutability": "nonpayable",
      "type": "function"
    },
    {
      "inputs": [
        {
          "internalType": "bytes32",
          "name": "propertyHash",
          "type": "bytes32"
        }
      ],
      "name": "withdrawRent",
      "outputs": [],
      "stateMutability": "nonpayable",
      "type": "function"
    }
  ],
  "bytecode": "0x608060405234801562000010575f80fd5b506040518060400160405280601281526020017f5257412050726f706572747920536861726500000000000000000000000000008152506040518060400160405280600381526020017f457368000000000000000000000000000000000000000000000000000000000081525081600390816200008e9190620004ef565b508060049081620000a09190620004ef565b505050620000b75f801b336200012460201b60201c565b50620000ea7fa49807205ce4d355092ef5a8a18f56e8913cf4a201fbe287825b095693c21775336200012460201b60201c565b506200011d7fb19546dff01e856fb3f010c267a7b1c60363cf8a4664e21cc89c26224620214e336200012460201b60201c565b50620005d3565b5f6200013783836200022060201b60201c565b6200021657600160055f8581526020019081526020015f205f015f8473ffffffffffffffffffffffffffffffffffffffff1673ffffffffffffffffffffffffffffffffffffffff1681526020019081526020015f205f6101000a81548160ff021916908315150217905550620001b26200028460201b60201c565b73ffffffffffffffffffffffffffffffffffffffff168273ffffffffffffffffffffffffffffffffffffffff16847f2f8788117e7eff1d82e926ec794901d17c78024a50270940304540a733656f0d60405160405180910390a4600190506200021a565b5f90505b92915050565b5f60055f8481526020019081526020015f205f015f8373ffffffffffffffffffffffffffffffffffffffff1673ffffffffffffffffffffffffffffffffffffffff1681526020019081526020015f205f9054906101000a900460ff16905092915050565b5f33905090565b5f81519050919050565b7f4e487b71000000000000000000000000000000000000000000000000000000005f52604160045260245ffd5b7f4e487b71000000000000000000000000000000000000000000000000000000005f52602260045260245ffd5b5f60028204905060018216806200030757607f821691505b6020821081036200031d576200031c620002c2565b5b50919050565b5f819050815f5260205f209050919050565b5f6020601f8301049050919050565b5f82821b905092915050565b5f60088302620003817fffffffffffffffffffffffffffffffffffffffffffffffffffffffffffffffff8262000344565b6200038d868362000344565b95508019841693508086168417925050509392505050565b5f819050919050565b5f819050919050565b5f620003d7620003d1620003cb84620003a5565b620003ae565b620003a5565b9050919050565b5f819050919050565b620003f283620003b7565b6200040a6200040182620003de565b84845462000350565b825550505050565b5f90565b6200042062000412565b6200042d818484620003e7565b505050565b5b818110156200045457620004485f8262000416565b60018101905062000433565b5050565b601f821115620004a3576200046d8162000323565b620004788462000335565b8101602085101562000488578190505b620004a0620004978562000335565b83018262000432565b50505b505050565b5f82821c905092915050565b5f620004c55f1984600802620004a8565b1980831691505092915050565b5f620004df8383620004b4565b9150826002028217905092915050565b620004fa826200028b565b67ffffffffffffffff81111562000516576200051562000295565b5b620005228254620002ef565b6200052f82828562000458565b5f60209050601f83116001811462000565575f841562000550578287015190505b6200055c8582620004d2565b865550620005cb565b601f198416620005758662000323565b5f5b828110156200059e5784890151825560018201915060208501945060208101905062000577565b86831015620005be5784890151620005ba601f891682620004b4565b8355505b6001600288020188555050505b505050505050565b6157ed80620005e15f395ff3fe6080604052600436106102ad575f3560e01c806375b238fc11610174578063b67df524116100db578063dd62ed3e11610094578063e58378bb1161006e578063e58378bb14610b0c578063ec23ad2814610b36578063f72fd22a14610b60578063f844cd7d14610b7c576102ad565b8063dd62ed3e14610a6a578063e112e91614610aa6578063e5032d6214610ae2576102ad565b8063b67df52414610945578063bd15627314610981578063c42e5888146109c2578063c7e9bd6a146109ea578063d547741f14610a06578063d93d736114610a2e576102ad565b8063a217fddf1161012d578063a217fddf14610829578063a220b6df14610853578063a71207271461087d578063a9059cbb146108b9578063aad9a73d146108f5578063af8d309e1461091d576102ad565b806375b238fc1461071d57806379d47e01146107475780638e9e88751461077157806391d1485414610799578063950c5d03146107d557806395d89b41146107ff576102ad565b806329c301371161021857806346cc599e116101d157806346cc599e14610603578063514120991461063f578063594cc7151461066957806363ec043514610691578063662f07ff146106b957806370a08231146106e1576102ad565b806329c30137146105115780632be5ae82146105395780632d14e7fb146105615780632f2ff15d14610589578063313ce567146105b157806336568abe146105db576102ad565b806318160ddd1161026a57806318160ddd146103e15780631ea35a691461040b578063219f267b1461044757806321cd2c2a1461047157806323b872dd14610499578063248a9ca3146104d5576102ad565b806301ffc9a7146102b157806306fdde03146102ed578063095ea7b3146103175780630e27324d14610353578063116347981461037b57806311e1f929146103b7575b5f80fd5b3480156102bc575f80fd5b506102d760048036038101906102d2919061400e565b610ba4565b6040516102e49190614053565b60405180910390f35b3480156102f8575f80fd5b50610301610c1d565b60405161030e91906140f6565b60405180910390f35b348015610322575f80fd5b5061033d600480360381019061033891906141a3565b610cad565b60405161034a9190614053565b60405180910390f35b34801561035e575f80fd5b50610379600480360381019061037491906141e1565b610ccf565b005b348015610386575f80fd5b506103a1600480360381019061039c919061423f565b610e55565b6040516103ae9190614279565b60405180910390f35b3480156103c2575f80fd5b506103cb610e6a565b6040516103d89190614053565b60405180910390f35b3480156103ec575f80fd5b506103f5610e7d565b6040516104029190614279565b60405180910390f35b348015610416575f80fd5b50610431600480360381019061042c919061423f565b610e86565b60405161043e9190614053565b60405180910390f35b348015610452575f80fd5b5061045b610ea3565b60405161046891906142a1565b60405180910390f35b34801561047c575f80fd5b506104976004803603810190610492919061423f565b610ec8565b005b3480156104a4575f80fd5b506104bf60048036038101906104ba91906142ba565b610f4b565b6040516104cc9190614053565b60405180910390f35b3480156104e0575f80fd5b506104fb60048036038101906104f6919061423f565b610f79565b6040516105089190614319565b60405180910390f35b34801561051c575f80fd5b50610537600480360381019061053291906141e1565b610f96565b005b348015610544575f80fd5b5061055f600480360381019061055a919061423f565b6110bf565b005b34801561056c575f80fd5b50610587600480360381019061058291906141e1565b611143565b005b348015610594575f80fd5b506105af60048036038101906105aa9190614332565b611296565b005b3480156105bc575f80fd5b506105c56112b8565b6040516105d2919061438b565b60405180910390f35b3480156105e6575f80fd5b5061060160048036038101906105fc9190614332565b6112c0565b005b34801561060e575f80fd5b50610629600480360381019061062491906141e1565b61133b565b6040516106369190614417565b60405180910390f35b34801561064a575f80fd5b50610653611358565b6040516106609190614053565b60405180910390f35b348015610674575f80fd5b5061068f600480360381019061068a91906141e1565b61136b565b005b34801561069c575f80fd5b506106b760048036038101906106b291906141e1565b611494565b005b3480156106c4575f80fd5b506106df60048036038101906106da9190614332565b6115bd565b005b3480156106ec575f80fd5b50610707600480360381019061070291906141e1565b6118ee565b6040516107149190614279565b60405180910390f35b348015610728575f80fd5b50610731611933565b60405161073e9190614319565b60405180910390f35b348015610752575f80fd5b5061075b611957565b60405161076891906142a1565b60405180910390f35b34801561077c575f80fd5b506107976004803603810190610792919061423f565b61197c565b005b3480156107a4575f80fd5b506107bf60048036038101906107ba9190614332565b611d91565b6040516107cc9190614053565b60405180910390f35b3480156107e0575f80fd5b506107e9611df5565b6040516107f691906142a1565b60405180910390f35b34801561080a575f80fd5b50610813611e1b565b60405161082091906140f6565b60405180910390f35b348015610834575f80fd5b5061083d611eab565b60405161084a9190614319565b60405180910390f35b34801561085e575f80fd5b50610867611eb1565b6040516108749190614053565b60405180910390f35b348015610888575f80fd5b506108a3600480360381019061089e919061423f565b611ec3565b6040516108b091906142a1565b60405180910390f35b3480156108c4575f80fd5b506108df60048036038101906108da91906141a3565b611ef3565b6040516108ec9190614053565b60405180910390f35b348015610900575f80fd5b5061091b60048036038101906109169190614430565b611f15565b005b348015610928575f80fd5b50610943600480360381019061093e9190614480565b612177565b005b348015610950575f80fd5b5061096b60048036038101906109669190614332565b61243b565b6040516109789190614279565b60405180910390f35b34801561098c575f80fd5b506109a760048036038101906109a2919061423f565b61245b565b6040516109b9969594939291906144be565b60405180910390f35b3480156109cd575f80fd5b506109e860048036038101906109e391906141e1565b6124b7565b005b610a0460048036038101906109ff919061423f565b61263d565b005b348015610a11575f80fd5b50610a2c6004803603810190610a279190614332565b6128e6565b005b348015610a39575f80fd5b50610a546004803603810190610a4f9190614332565b612908565b604051610a619190614279565b60405180910390f35b348015610a75575f80fd5b50610a906004803603810190610a8b919061451d565b612928565b604051610a9d9190614279565b60405180910390f35b348015610ab1575f80fd5b50610acc6004803603810190610ac79190614332565b6129aa565b604051610ad99190614279565b60405180910390f35b348015610aed575f80fd5b50610af66129bd565b604051610b039190614053565b60405180910390f35b348015610b17575f80fd5b50610b206129d0565b604051610b2d9190614319565b60405180910390f35b348015610b41575f80fd5b50610b4a6129f4565b604051610b5791906142a1565b60405180910390f35b610b7a6004803603810190610b75919061455b565b612a19565b005b348015610b87575f80fd5b50610ba26004803603810190610b9d919061423f565b613162565b005b5f7f7965db0b000000000000000000000000000000000000000000000000000000007bffffffffffffffffffffffffffffffffffffffffffffffffffffffff1916827bffffffffffffffffffffffffffffffffffffffffffffffffffffffff19161480610c165750610c15826133d0565b5b9050919050565b606060038054610c2c906145ec565b80601f0160208091040260200160405190810160405280929190818152602001828054610c58906145ec565b8015610ca35780601f10610c7a57610100808354040283529160200191610ca3565b820191905f5260205f20905b815481529060010190602001808311610c8657829003601f168201915b5050505050905090565b5f80610cb7613439565b9050610cc4818585613440565b600191505092915050565b7fa49807205ce4d355092ef5a8a18f56e8913cf4a201fbe287825b095693c21775610cf981613452565b60016003811115610d0d57610d0c6143a4565b5b600a5f8473ffffffffffffffffffffffffffffffffffffffff1673ffffffffffffffffffffffffffffffffffffffff1681526020019081526020015f205f9054906101000a900460ff166003811115610d6957610d686143a4565b5b14610da9576040517f08c379a0000000000000000000000000000000000000000000000000000000008152600401610da090614666565b60405180910390fd5b6002600a5f8473ffffffffffffffffffffffffffffffffffffffff1673ffffffffffffffffffffffffffffffffffffffff1681526020019081526020015f205f6101000a81548160ff02191690836003811115610e0957610e086143a4565b5b02179055508173ffffffffffffffffffffffffffffffffffffffff167f333bb19eeef0621b32888db778cc7a481a89fc1d59adb2cecb59b40ef048941e60405160405180910390a25050565b600f602052805f5260405f205f915090505481565b600660019054906101000a900460ff1681565b5f600254905090565b6011602052805f5260405f205f915054906101000a900460ff1681565b60075f9054906101000a900473ffffffffffffffffffffffffffffffffffffffff1681565b7fa49807205ce4d355092ef5a8a18f56e8913cf4a201fbe287825b095693c21775610ef281613452565b5f60115f8481526020019081526020015f205f6101000a81548160ff021916908315150217905550817f21f0043b2b6c5431d86682b94c99165c43360a6336d12e8008df82a8cc7232e360405160405180910390a25050565b5f80610f55613439565b9050610f62858285613466565b610f6d8585856134f9565b60019150509392505050565b5f60055f8381526020019081526020015f20600101549050919050565b5f801b610fa281613452565b600660019054906101000a900460ff1615610ff2576040517f08c379a0000000000000000000000000000000000000000000000000000000008152600401610fe9906146ce565b60405180910390fd5b5f73ffffffffffffffffffffffffffffffffffffffff168273ffffffffffffffffffffffffffffffffffffffff1603611060576040517f08c379a000000000000000000000000000000000000000000000000000000000815260040161105790614736565b60405180910390fd5b8160075f6101000a81548173ffffffffffffffffffffffffffffffffffffffff021916908373ffffffffffffffffffffffffffffffffffffffff1602179055506001600660016101000a81548160ff0219169083151502179055505050565b7fa49807205ce4d355092ef5a8a18f56e8913cf4a201fbe287825b095693c217756110e981613452565b600160115f8481526020019081526020015f205f6101000a81548160ff021916908315150217905550817fb0290a0f2f64014c753cd167df1aa09bc6c19a58337de77567ccbea91eb9a7da60405160405180910390a25050565b5f801b61114f81613452565b60065f9054906101000a900460ff161561119e576040517f08c379a0000000000000000000000000000000000000000000000000000000008152600401611195906146ce565b60405180910390fd5b5f73ffffffffffffffffffffffffffffffffffffffff168273ffffffffffffffffffffffffffffffffffffffff160361120c576040517f08c379a000000000000000000000000000000000000000000000000000000000815260040161120390614736565b60405180910390fd5b6112367fa49807205ce4d355092ef5a8a18f56e8913cf4a201fbe287825b095693c21775836135e9565b5081600660046101000a81548173ffffffffffffffffffffffffffffffffffffffff021916908373ffffffffffffffffffffffffffffffffffffffff160217905550600160065f6101000a81548160ff0219169083151502179055505050565b61129f82610f79565b6112a881613452565b6112b283836135e9565b50505050565b5f6012905090565b6112c8613439565b73ffffffffffffffffffffffffffffffffffffffff168173ffffffffffffffffffffffffffffffffffffffff161461132c576040517f6697b23200000000000000000000000000000000000000000000000000000000815260040160405180910390fd5b61133682826136d3565b505050565b600a602052805f5260405f205f915054906101000a900460ff1681565b600660029054906101000a900460ff1681565b5f801b61137781613452565b600660039054906101000a900460ff16156113c7576040517f08c379a00000000000000000000000000000000000000000000000000000000081526004016113be906146ce565b60405180910390fd5b5f73ffffffffffffffffffffffffffffffffffffffff168273ffffffffffffffffffffffffffffffffffffffff1603611435576040517f08c379a000000000000000000000000000000000000000000000000000000000815260040161142c90614736565b60405180910390fd5b8160095f6101000a81548173ffffffffffffffffffffffffffffffffffffffff021916908373ffffffffffffffffffffffffffffffffffffffff1602179055506001600660036101000a81548160ff0219169083151502179055505050565b5f801b6114a081613452565b600660029054906101000a900460ff16156114f0576040517f08c379a00000000000000000000000000000000000000000000000000000000081526004016114e7906146ce565b60405180910390fd5b5f73ffffffffffffffffffffffffffffffffffffffff168273ffffffffffffffffffffffffffffffffffffffff160361155e576040517f08c379a000000000000000000000000000000000000000000000000000000000815260040161155590614736565b60405180910390fd5b8160085f6101000a81548173ffffffffffffffffffffffffffffffffffffffff021916908373ffffffffffffffffffffffffffffffffffffffff1602179055506001600660026101000a81548160ff0219169083151502179055505050565b7fa49807205ce4d355092ef5a8a18f56e8913cf4a201fbe287825b095693c217756115e781613452565b600c5f8481526020019081526020015f205f015f9054906101000a900460ff1615611647576040517f08c379a000000000000000000000000000000000000000000000000000000000815260040161163e9061479e565b60405180910390fd5b5f73ffffffffffffffffffffffffffffffffffffffff168273ffffffffffffffffffffffffffffffffffffffff16036116b5576040517f08c379a00000000000000000000000000000000000000000000000000000000081526004016116ac90614806565b60405180910390fd5b600260038111156116c9576116c86143a4565b5b600a5f8473ffffffffffffffffffffffffffffffffffffffff1673ffffffffffffffffffffffffffffffffffffffff1681526020019081526020015f205f9054906101000a900460ff166003811115611725576117246143a4565b5b14611765576040517f08c379a000000000000000000000000000000000000000000000000000000000815260040161175c9061486e565b60405180910390fd5b6040518060c001604052806001151581526020016001151581526020015f151581526020015f81526020015f801b81526020015f815250600c5f8581526020019081526020015f205f820151815f015f6101000a81548160ff0219169083151502179055506020820151815f0160016101000a81548160ff0219169083151502179055506040820151815f0160026101000a81548160ff021916908315150217905550606082015181600101556080820151816002015560a0820151816003015590505081600d5f8581526020019081526020015f205f6101000a81548173ffffffffffffffffffffffffffffffffffffffff021916908373ffffffffffffffffffffffffffffffffffffffff1602179055508173ffffffffffffffffffffffffffffffffffffffff16837ff936565b47c085839d3ebcdf5253212b3e951e3993eaa8b8845b1b156fbf511560405160405180910390a3827ff5211a2111539e202ab3dbbf52dcd329c9dfa2be5c7a9f016b2c70912b11319f60405160405180910390a2505050565b5f805f8373ffffffffffffffffffffffffffffffffffffffff1673ffffffffffffffffffffffffffffffffffffffff1681526020019081526020015f20549050919050565b7fa49807205ce4d355092ef5a8a18f56e8913cf4a201fbe287825b095693c2177581565b60085f9054906101000a900473ffffffffffffffffffffffffffffffffffffffff1681565b8060115f8281526020019081526020015f205f9054906101000a900460ff16156119db576040517f08c379a00000000000000000000000000000000000000000000000000000000081526004016119d2906148d6565b60405180910390fd5b5f6119e46137bd565b9050600260038111156119fa576119f96143a4565b5b600a5f8373ffffffffffffffffffffffffffffffffffffffff1673ffffffffffffffffffffffffffffffffffffffff1681526020019081526020015f205f9054906101000a900460ff166003811115611a5657611a556143a4565b5b14611a96576040517f08c379a0000000000000000000000000000000000000000000000000000000008152600401611a8d9061493e565b60405180910390fd5b5f600e5f8581526020019081526020015f205f8373ffffffffffffffffffffffffffffffffffffffff1673ffffffffffffffffffffffffffffffffffffffff1681526020019081526020015f205490505f8111611b28576040517f08c379a0000000000000000000000000000000000000000000000000000000008152600401611b1f906149a6565b60405180910390fd5b5f600f5f8681526020019081526020015f205490505f60105f8781526020019081526020015f205f8573ffffffffffffffffffffffffffffffffffffffff1673ffffffffffffffffffffffffffffffffffffffff1681526020019081526020015f205490505f670de0b6b3a76400008284611ba391906149f1565b85611bae9190614a24565b611bb89190614a92565b90505f8111611bfc576040517f08c379a0000000000000000000000000000000000000000000000000000000008152600401611bf390614b0c565b60405180910390fd5b80471015611c3f576040517f08c379a0000000000000000000000000000000000000000000000000000000008152600401611c3690614b74565b60405180910390fd5b8260105f8981526020019081526020015f205f8773ffffffffffffffffffffffffffffffffffffffff1673ffffffffffffffffffffffffffffffffffffffff1681526020019081526020015f20819055505f8573ffffffffffffffffffffffffffffffffffffffff1682604051611cb590614bbf565b5f6040518083038185875af1925050503d805f8114611cef576040519150601f19603f3d011682016040523d82523d5f602084013e611cf4565b606091505b5050905080611d38576040517f08c379a0000000000000000000000000000000000000000000000000000000008152600401611d2f90614c1d565b60405180910390fd5b8573ffffffffffffffffffffffffffffffffffffffff16887f044db75eacdd9cfbc8cb6fd282edd6718bbaeab1d120ee3c814290e45484d37b84604051611d7f9190614279565b60405180910390a35050505050505050565b5f60055f8481526020019081526020015f205f015f8373ffffffffffffffffffffffffffffffffffffffff1673ffffffffffffffffffffffffffffffffffffffff1681526020019081526020015f205f9054906101000a900460ff16905092915050565b600660049054906101000a900473ffffffffffffffffffffffffffffffffffffffff1681565b606060048054611e2a906145ec565b80601f0160208091040260200160405190810160405280929190818152602001828054611e56906145ec565b8015611ea15780601f10611e7857610100808354040283529160200191611ea1565b820191905f5260205f20905b815481529060010190602001808311611e8457829003601f168201915b5050505050905090565b5f801b81565b60065f9054906101000a900460ff1681565b600d602052805f5260405f205f915054906101000a900473ffffffffffffffffffffffffffffffffffffffff1681565b5f80611efd613439565b9050611f0a8185856134f9565b600191505092915050565b82600c5f8281526020019081526020015f205f0160019054906101000a900460ff16611f76576040517f08c379a0000000000000000000000000000000000000000000000000000000008152600401611f6d90614c85565b60405180910390fd5b5f611f7f6137bd565b9050600c5f8681526020019081526020015f205f015f9054906101000a900460ff16611fe0576040517f08c379a0000000000000000000000000000000000000000000000000000000008152600401611fd790614ced565b60405180910390fd5b600d5f8681526020019081526020015f205f9054906101000a900473ffffffffffffffffffffffffffffffffffffffff1673ffffffffffffffffffffffffffffffffffffffff168173ffffffffffffffffffffffffffffffffffffffff161461207e576040517f08c379a000000000000000000000000000000000000000000000000000000000815260040161207590614d55565b60405180910390fd5b5f83116120c0576040517f08c379a00000000000000000000000000000000000000000000000000000000081526004016120b790614dbd565b60405180910390fd5b5f801b8403612104576040517f08c379a00000000000000000000000000000000000000000000000000000000081526004016120fb90614e25565b60405180910390fd5b83600c5f8781526020019081526020015f206002018190555082600c5f8781526020019081526020015f2060030181905550847fb1e3b091f2655041ee2cbd7fffbb21ada78f3d2903cb49f6c13797a8faad9e898585604051612168929190614e43565b60405180910390a25050505050565b7fa49807205ce4d355092ef5a8a18f56e8913cf4a201fbe287825b095693c217756121a181613452565b600c5f8481526020019081526020015f205f0160019054906101000a900460ff16612201576040517f08c379a00000000000000000000000000000000000000000000000000000000081526004016121f890614eb4565b60405180910390fd5b600c5f8481526020019081526020015f205f0160029054906101000a900460ff1615612262576040517f08c379a000000000000000000000000000000000000000000000000000000000815260040161225990614f1c565b60405180910390fd5b5f82116122a4576040517f08c379a000000000000000000000000000000000000000000000000000000000815260040161229b90614f84565b60405180910390fd5b5f6122ad6112b8565b600a6122b991906150d1565b836122c49190614a24565b90506001600c5f8681526020019081526020015f205f0160026101000a81548160ff02191690831515021790555080600c5f8681526020019081526020015f20600101819055505f600d5f8681526020019081526020015f205f9054906101000a900473ffffffffffffffffffffffffffffffffffffffff16905081600e5f8781526020019081526020015f205f8373ffffffffffffffffffffffffffffffffffffffff1673ffffffffffffffffffffffffffffffffffffffff1681526020019081526020015f2081905550600f5f8681526020019081526020015f205460105f8781526020019081526020015f205f8373ffffffffffffffffffffffffffffffffffffffff1673ffffffffffffffffffffffffffffffffffffffff1681526020019081526020015f20819055506123fc8183613928565b847f45976e7a8c3b99f329c381d06d07a31fa79fd41667fa8c5f3c24bdef73e892ac8560405161242c9190614279565b60405180910390a25050505050565b6010602052815f5260405f20602052805f5260405f205f91509150505481565b600c602052805f5260405f205f91509050805f015f9054906101000a900460ff1690805f0160019054906101000a900460ff1690805f0160029054906101000a900460ff16908060010154908060020154908060030154905086565b7fa49807205ce4d355092ef5a8a18f56e8913cf4a201fbe287825b095693c217756124e181613452565b600160038111156124f5576124f46143a4565b5b600a5f8473ffffffffffffffffffffffffffffffffffffffff1673ffffffffffffffffffffffffffffffffffffffff1681526020019081526020015f205f9054906101000a900460ff166003811115612551576125506143a4565b5b14612591576040517f08c379a000000000000000000000000000000000000000000000000000000000815260040161258890614666565b60405180910390fd5b6003600a5f8473ffffffffffffffffffffffffffffffffffffffff1673ffffffffffffffffffffffffffffffffffffffff1681526020019081526020015f205f6101000a81548160ff021916908360038111156125f1576125f06143a4565b5b02179055508173ffffffffffffffffffffffffffffffffffffffff167fa34e10975b6442017fb6ca6ba35e6d671924c59f52737e20ef2362a5ca2c275160405160405180910390a25050565b80600c5f8281526020019081526020015f205f0160019054906101000a900460ff1661269e576040517f08c379a000000000000000000000000000000000000000000000000000000000815260040161269590614c85565b60405180910390fd5b81600c5f8281526020019081526020015f205f0160029054906101000a900460ff166126ff576040517f08c379a00000000000000000000000000000000000000000000000000000000081526004016126f690615165565b60405180910390fd5b8260115f8281526020019081526020015f205f9054906101000a900460ff161561275e576040517f08c379a0000000000000000000000000000000000000000000000000000000008152600401612755906148d6565b60405180910390fd5b5f6127676137bd565b90505f600c5f8781526020019081526020015f2090508060020154600b5f8473ffffffffffffffffffffffffffffffffffffffff1673ffffffffffffffffffffffffffffffffffffffff1681526020019081526020015f205414612800576040517f08c379a00000000000000000000000000000000000000000000000000000000081526004016127f7906151cd565b60405180910390fd5b80600301543414612846576040517f08c379a000000000000000000000000000000000000000000000000000000000815260040161283d90615235565b60405180910390fd5b8060010154670de0b6b3a76400003461285f9190614a24565b6128699190614a92565b600f5f8881526020019081526020015f205f8282546128889190615253565b925050819055508173ffffffffffffffffffffffffffffffffffffffff16867f99ac42323d9945d69edf8f857b86a7413a2aed09034f60e93dd9f6b6465e1eb8346040516128d69190614279565b60405180910390a3505050505050565b6128ef82610f79565b6128f881613452565b61290283836136d3565b50505050565b600e602052815f5260405f20602052805f5260405f205f91509150505481565b5f60015f8473ffffffffffffffffffffffffffffffffffffffff1673ffffffffffffffffffffffffffffffffffffffff1681526020019081526020015f205f8373ffffffffffffffffffffffffffffffffffffffff1673ffffffffffffffffffffffffffffffffffffffff1681526020019081526020015f2054905092915050565b5f6129b583836139a7565b905092915050565b600660039054906101000a900460ff1681565b7fb19546dff01e856fb3f010c267a7b1c60363cf8a4664e21cc89c26224620214e81565b60095f9054906101000a900473ffffffffffffffffffffffffffffffffffffffff1681565b8360115f8281526020019081526020015f205f9054906101000a900460ff1615612a78576040517f08c379a0000000000000000000000000000000000000000000000000000000008152600401612a6f906148d6565b60405180910390fd5b5f612a816137bd565b905060026003811115612a9757612a966143a4565b5b600a5f8373ffffffffffffffffffffffffffffffffffffffff1673ffffffffffffffffffffffffffffffffffffffff1681526020019081526020015f205f9054906101000a900460ff166003811115612af357612af26143a4565b5b14612b33576040517f08c379a0000000000000000000000000000000000000000000000000000000008152600401612b2a906152d0565b60405180910390fd5b60026003811115612b4757612b466143a4565b5b600a5f8773ffffffffffffffffffffffffffffffffffffffff1673ffffffffffffffffffffffffffffffffffffffff1681526020019081526020015f205f9054906101000a900460ff166003811115612ba357612ba26143a4565b5b14612be3576040517f08c379a0000000000000000000000000000000000000000000000000000000008152600401612bda90615338565b60405180910390fd5b8473ffffffffffffffffffffffffffffffffffffffff168173ffffffffffffffffffffffffffffffffffffffff1603612c51576040517f08c379a0000000000000000000000000000000000000000000000000000000008152600401612c48906153a0565b60405180910390fd5b5f8411612c93576040517f08c379a0000000000000000000000000000000000000000000000000000000008152600401612c8a90615408565b60405180910390fd5b83600e5f8881526020019081526020015f205f8773ffffffffffffffffffffffffffffffffffffffff1673ffffffffffffffffffffffffffffffffffffffff1681526020019081526020015f20541015612d22576040517f08c379a0000000000000000000000000000000000000000000000000000000008152600401612d1990615470565b60405180910390fd5b5f670de0b6b3a76400008486612d389190614a24565b612d429190614a92565b9050803414612d86576040517f08c379a0000000000000000000000000000000000000000000000000000000008152600401612d7d906154d8565b60405180910390fd5b5f600f5f8981526020019081526020015f205490505f612da689896139a7565b90508160105f8b81526020019081526020015f205f8a73ffffffffffffffffffffffffffffffffffffffff1673ffffffffffffffffffffffffffffffffffffffff1681526020019081526020015f20819055508773ffffffffffffffffffffffffffffffffffffffff16897fcf869c9035d37611d7353b7df00949f885b7b1629287bd67f27075688f23f3978484604051612e429291906154f6565b60405180910390a35f600e5f8b81526020019081526020015f205f8673ffffffffffffffffffffffffffffffffffffffff1673ffffffffffffffffffffffffffffffffffffffff1681526020019081526020015f205403612f40578160105f8b81526020019081526020015f205f8673ffffffffffffffffffffffffffffffffffffffff1673ffffffffffffffffffffffffffffffffffffffff1681526020019081526020015f20819055508373ffffffffffffffffffffffffffffffffffffffff16897fcf869c9035d37611d7353b7df00949f885b7b1629287bd67f27075688f23f397845f604051612f3792919061555f565b60405180910390a35b86600e5f8b81526020019081526020015f205f8a73ffffffffffffffffffffffffffffffffffffffff1673ffffffffffffffffffffffffffffffffffffffff1681526020019081526020015f205f828254612f9b91906149f1565b9250508190555086600e5f8b81526020019081526020015f205f8673ffffffffffffffffffffffffffffffffffffffff1673ffffffffffffffffffffffffffffffffffffffff1681526020019081526020015f205f828254612ffd9190615253565b925050819055506001600960146101000a81548160ff02191690831515021790555061302a8885896134f9565b5f600960146101000a81548160ff0219169083151502179055505f8873ffffffffffffffffffffffffffffffffffffffff163460405161306990614bbf565b5f6040518083038185875af1925050503d805f81146130a3576040519150601f19603f3d011682016040523d82523d5f602084013e6130a8565b606091505b50509050806130ec576040517f08c379a00000000000000000000000000000000000000000000000000000000081526004016130e3906155d0565b60405180910390fd5b8473ffffffffffffffffffffffffffffffffffffffff168973ffffffffffffffffffffffffffffffffffffffff168b7fb680321c0b0f9843e06a19f13fc17755378390bc71e7a6ce9fdf850b17d100908b8b8960405161314e939291906155ee565b60405180910390a450505050505050505050565b5f61316b6137bd565b90505f801b82036131b1576040517f08c379a00000000000000000000000000000000000000000000000000000000081526004016131a89061566d565b60405180910390fd5b5f60038111156131c4576131c36143a4565b5b600a5f8373ffffffffffffffffffffffffffffffffffffffff1673ffffffffffffffffffffffffffffffffffffffff1681526020019081526020015f205f9054906101000a900460ff1660038111156132205761321f6143a4565b5b1480613298575060038081111561323a576132396143a4565b5b600a5f8373ffffffffffffffffffffffffffffffffffffffff1673ffffffffffffffffffffffffffffffffffffffff1681526020019081526020015f205f9054906101000a900460ff166003811115613296576132956143a4565b5b145b6132d7576040517f08c379a00000000000000000000000000000000000000000000000000000000081526004016132ce906156d5565b60405180910390fd5b81600b5f8373ffffffffffffffffffffffffffffffffffffffff1673ffffffffffffffffffffffffffffffffffffffff1681526020019081526020015f20819055506001600a5f8373ffffffffffffffffffffffffffffffffffffffff1673ffffffffffffffffffffffffffffffffffffffff1681526020019081526020015f205f6101000a81548160ff02191690836003811115613379576133786143a4565b5b02179055508073ffffffffffffffffffffffffffffffffffffffff167f9c350cbd10f7d666123fb659f7ba90bd03021217f38d91b584cf8b93d87a618f836040516133c49190614319565b60405180910390a25050565b5f7f01ffc9a7000000000000000000000000000000000000000000000000000000007bffffffffffffffffffffffffffffffffffffffffffffffffffffffff1916827bffffffffffffffffffffffffffffffffffffffffffffffffffffffff1916149050919050565b5f33905090565b61344d8383836001613ab1565b505050565b6134638161345e613439565b613c80565b50565b5f6134718484612928565b90507fffffffffffffffffffffffffffffffffffffffffffffffffffffffffffffffff8110156134f357818110156134e4578281836040517ffb8f41b20000000000000000000000000000000000000000000000000000000081526004016134db939291906156f3565b60405180910390fd5b6134f284848484035f613ab1565b5b50505050565b5f73ffffffffffffffffffffffffffffffffffffffff168373ffffffffffffffffffffffffffffffffffffffff1603613569575f6040517f96c6fd1e00000000000000000000000000000000000000000000000000000000815260040161356091906142a1565b60405180910390fd5b5f73ffffffffffffffffffffffffffffffffffffffff168273ffffffffffffffffffffffffffffffffffffffff16036135d9575f6040517fec442f050000000000000000000000000000000000000000000000000000000081526004016135d091906142a1565b60405180910390fd5b6135e4838383613cd1565b505050565b5f6135f48383611d91565b6136c957600160055f8581526020019081526020015f205f015f8473ffffffffffffffffffffffffffffffffffffffff1673ffffffffffffffffffffffffffffffffffffffff1681526020019081526020015f205f6101000a81548160ff021916908315150217905550613666613439565b73ffffffffffffffffffffffffffffffffffffffff168273ffffffffffffffffffffffffffffffffffffffff16847f2f8788117e7eff1d82e926ec794901d17c78024a50270940304540a733656f0d60405160405180910390a4600190506136cd565b5f90505b92915050565b5f6136de8383611d91565b156137b3575f60055f8581526020019081526020015f205f015f8473ffffffffffffffffffffffffffffffffffffffff1673ffffffffffffffffffffffffffffffffffffffff1681526020019081526020015f205f6101000a81548160ff021916908315150217905550613750613439565b73ffffffffffffffffffffffffffffffffffffffff168273ffffffffffffffffffffffffffffffffffffffff16847ff6391f5c32d9c69d2a47ea670b442974b53935d1edc7fd64eb21e047a839171b60405160405180910390a4600190506137b7565b5f90505b92915050565b5f600660049054906101000a900473ffffffffffffffffffffffffffffffffffffffff1673ffffffffffffffffffffffffffffffffffffffff163373ffffffffffffffffffffffffffffffffffffffff161480613866575060075f9054906101000a900473ffffffffffffffffffffffffffffffffffffffff1673ffffffffffffffffffffffffffffffffffffffff163373ffffffffffffffffffffffffffffffffffffffff16145b806138bd575060085f9054906101000a900473ffffffffffffffffffffffffffffffffffffffff1673ffffffffffffffffffffffffffffffffffffffff163373ffffffffffffffffffffffffffffffffffffffff16145b80613914575060095f9054906101000a900473ffffffffffffffffffffffffffffffffffffffff1673ffffffffffffffffffffffffffffffffffffffff163373ffffffffffffffffffffffffffffffffffffffff16145b1561392157329050613925565b3390505b90565b5f73ffffffffffffffffffffffffffffffffffffffff168273ffffffffffffffffffffffffffffffffffffffff1603613998575f6040517fec442f0500000000000000000000000000000000000000000000000000000000815260040161398f91906142a1565b60405180910390fd5b6139a35f8383613cd1565b5050565b5f80600f5f8581526020019081526020015f205490505f60105f8681526020019081526020015f205f8573ffffffffffffffffffffffffffffffffffffffff1673ffffffffffffffffffffffffffffffffffffffff1681526020019081526020015f205490505f600e5f8781526020019081526020015f205f8673ffffffffffffffffffffffffffffffffffffffff1673ffffffffffffffffffffffffffffffffffffffff1681526020019081526020015f205490505f811480613a6b5750818311155b15613a7b575f9350505050613aab565b670de0b6b3a76400008284613a9091906149f1565b82613a9b9190614a24565b613aa59190614a92565b93505050505b92915050565b5f73ffffffffffffffffffffffffffffffffffffffff168473ffffffffffffffffffffffffffffffffffffffff1603613b21575f6040517fe602df05000000000000000000000000000000000000000000000000000000008152600401613b1891906142a1565b60405180910390fd5b5f73ffffffffffffffffffffffffffffffffffffffff168373ffffffffffffffffffffffffffffffffffffffff1603613b91575f6040517f94280d62000000000000000000000000000000000000000000000000000000008152600401613b8891906142a1565b60405180910390fd5b8160015f8673ffffffffffffffffffffffffffffffffffffffff1673ffffffffffffffffffffffffffffffffffffffff1681526020019081526020015f205f8573ffffffffffffffffffffffffffffffffffffffff1673ffffffffffffffffffffffffffffffffffffffff1681526020019081526020015f20819055508015613c7a578273ffffffffffffffffffffffffffffffffffffffff168473ffffffffffffffffffffffffffffffffffffffff167f8c5be1e5ebec7d5bd14f71427d1e84f3dd0314c0f7b2291e5b200ac8c7c3b92584604051613c719190614279565b60405180910390a35b50505050565b613c8a8282611d91565b613ccd5780826040517fe2517d3f000000000000000000000000000000000000000000000000000000008152600401613cc4929190615728565b60405180910390fd5b5050565b600960149054906101000a900460ff1680613d1757505f73ffffffffffffffffffffffffffffffffffffffff168373ffffffffffffffffffffffffffffffffffffffff16145b80613d4d57505f73ffffffffffffffffffffffffffffffffffffffff168273ffffffffffffffffffffffffffffffffffffffff16145b613d8c576040517f08c379a0000000000000000000000000000000000000000000000000000000008152600401613d8390615799565b60405180910390fd5b613d97838383613d9c565b505050565b5f73ffffffffffffffffffffffffffffffffffffffff168373ffffffffffffffffffffffffffffffffffffffff1603613dec578060025f828254613de09190615253565b92505081905550613eba565b5f805f8573ffffffffffffffffffffffffffffffffffffffff1673ffffffffffffffffffffffffffffffffffffffff1681526020019081526020015f2054905081811015613e75578381836040517fe450d38c000000000000000000000000000000000000000000000000000000008152600401613e6c939291906156f3565b60405180910390fd5b8181035f808673ffffffffffffffffffffffffffffffffffffffff1673ffffffffffffffffffffffffffffffffffffffff1681526020019081526020015f2081905550505b5f73ffffffffffffffffffffffffffffffffffffffff168273ffffffffffffffffffffffffffffffffffffffff1603613f01578060025f8282540392505081905550613f4b565b805f808473ffffffffffffffffffffffffffffffffffffffff1673ffffffffffffffffffffffffffffffffffffffff1681526020019081526020015f205f82825401925050819055505b8173ffffffffffffffffffffffffffffffffffffffff168373ffffffffffffffffffffffffffffffffffffffff167fddf252ad1be2c89b69c2b068fc378daa952ba7f163c4a11628f55a4df523b3ef83604051613fa89190614279565b60405180910390a3505050565b5f80fd5b5f7fffffffff0000000000000000000000000000000000000000000000000000000082169050919050565b613fed81613fb9565b8114613ff7575f80fd5b50565b5f8135905061400881613fe4565b92915050565b5f6020828403121561402357614022613fb5565b5b5f61403084828501613ffa565b91505092915050565b5f8115159050919050565b61404d81614039565b82525050565b5f6020820190506140665f830184614044565b92915050565b5f81519050919050565b5f82825260208201905092915050565b5f5b838110156140a3578082015181840152602081019050614088565b5f8484015250505050565b5f601f19601f8301169050919050565b5f6140c88261406c565b6140d28185614076565b93506140e2818560208601614086565b6140eb816140ae565b840191505092915050565b5f6020820190508181035f83015261410e81846140be565b905092915050565b5f73ffffffffffffffffffffffffffffffffffffffff82169050919050565b5f61413f82614116565b9050919050565b61414f81614135565b8114614159575f80fd5b50565b5f8135905061416a81614146565b92915050565b5f819050919050565b61418281614170565b811461418c575f80fd5b50565b5f8135905061419d81614179565b92915050565b5f80604083850312156141b9576141b8613fb5565b5b5f6141c68582860161415c565b92505060206141d78582860161418f565b9150509250929050565b5f602082840312156141f6576141f5613fb5565b5b5f6142038482850161415c565b91505092915050565b5f819050919050565b61421e8161420c565b8114614228575f80fd5b50565b5f8135905061423981614215565b92915050565b5f6020828403121561425457614253613fb5565b5b5f6142618482850161422b565b91505092915050565b61427381614170565b82525050565b5f60208201905061428c5f83018461426a565b92915050565b61429b81614135565b82525050565b5f6020820190506142b45f830184614292565b92915050565b5f805f606084860312156142d1576142d0613fb5565b5b5f6142de8682870161415c565b93505060206142ef8682870161415c565b92505060406143008682870161418f565b9150509250925092565b6143138161420c565b82525050565b5f60208201905061432c5f83018461430a565b92915050565b5f806040838503121561434857614347613fb5565b5b5f6143558582860161422b565b92505060206143668582860161415c565b9150509250929050565b5f60ff82169050919050565b61438581614370565b82525050565b5f60208201905061439e5f83018461437c565b92915050565b7f4e487b71000000000000000000000000000000000000000000000000000000005f52602160045260245ffd5b600481106143e2576143e16143a4565b5b50565b5f8190506143f2826143d1565b919050565b5f614401826143e5565b9050919050565b614411816143f7565b82525050565b5f60208201905061442a5f830184614408565b92915050565b5f805f6060848603121561444757614446613fb5565b5b5f6144548682870161422b565b93505060206144658682870161422b565b92505060406144768682870161418f565b9150509250925092565b5f806040838503121561449657614495613fb5565b5b5f6144a38582860161422b565b92505060206144b48582860161418f565b9150509250929050565b5f60c0820190506144d15f830189614044565b6144de6020830188614044565b6144eb6040830187614044565b6144f8606083018661426a565b614505608083018561430a565b61451260a083018461426a565b979650505050505050565b5f806040838503121561453357614532613fb5565b5b5f6145408582860161415c565b92505060206145518582860161415c565b9150509250929050565b5f805f806080858703121561457357614572613fb5565b5b5f6145808782880161422b565b94505060206145918782880161415c565b93505060406145a28782880161418f565b92505060606145b38782880161418f565b91505092959194509250565b7f4e487b71000000000000000000000000000000000000000000000000000000005f52602260045260245ffd5b5f600282049050600182168061460357607f821691505b602082108103614616576146156145bf565b5b50919050565b7f4e6f742070656e64696e670000000000000000000000000000000000000000005f82015250565b5f614650600b83614076565b915061465b8261461c565b602082019050919050565b5f6020820190508181035f83015261467d81614644565b9050919050565b7f416c7265616479207365740000000000000000000000000000000000000000005f82015250565b5f6146b8600b83614076565b91506146c382614684565b602082019050919050565b5f6020820190508181035f8301526146e5816146ac565b9050919050565b7f496e76616c6964206164647265737300000000000000000000000000000000005f82015250565b5f614720600f83614076565b915061472b826146ec565b602082019050919050565b5f6020820190508181035f83015261474d81614714565b9050919050565b7f50726f70657274792065786973747300000000000000000000000000000000005f82015250565b5f614788600f83614076565b915061479382614754565b602082019050919050565b5f6020820190508181035f8301526147b58161477c565b9050919050565b7f496e76616c6964206f776e6572000000000000000000000000000000000000005f82015250565b5f6147f0600d83614076565b91506147fb826147bc565b602082019050919050565b5f6020820190508181035f83015261481d816147e4565b9050919050565b7f4f776e6572206e6f7420766572696669656400000000000000000000000000005f82015250565b5f614858601283614076565b915061486382614824565b602082019050919050565b5f6020820190508181035f8301526148858161484c565b9050919050565b7f50726f70657274792066726f7a656e00000000000000000000000000000000005f82015250565b5f6148c0600f83614076565b91506148cb8261488c565b602082019050919050565b5f6020820190508181035f8301526148ed816148b4565b9050919050565b7f4b5943206e6f74207665726966696564000000000000000000000000000000005f82015250565b5f614928601083614076565b9150614933826148f4565b602082019050919050565b5f6020820190508181035f8301526149558161491c565b9050919050565b7f4e6f20746f6b656e7300000000000000000000000000000000000000000000005f82015250565b5f614990600983614076565b915061499b8261495c565b602082019050919050565b5f6020820190508181035f8301526149bd81614984565b9050919050565b7f4e487b71000000000000000000000000000000000000000000000000000000005f52601160045260245ffd5b5f6149fb82614170565b9150614a0683614170565b9250828203905081811115614a1e57614a1d6149c4565b5b92915050565b5f614a2e82614170565b9150614a3983614170565b9250828202614a4781614170565b91508282048414831517614a5e57614a5d6149c4565b5b5092915050565b7f4e487b71000000000000000000000000000000000000000000000000000000005f52601260045260245ffd5b5f614a9c82614170565b9150614aa783614170565b925082614ab757614ab6614a65565b5b828204905092915050565b7f4e6f2072656e7420746f207769746864726177000000000000000000000000005f82015250565b5f614af6601383614076565b9150614b0182614ac2565b602082019050919050565b5f6020820190508181035f830152614b2381614aea565b9050919050565b7f496e73756666696369656e7420636f6e74726163742062616c616e63650000005f82015250565b5f614b5e601d83614076565b9150614b6982614b2a565b602082019050919050565b5f6020820190508181035f830152614b8b81614b52565b9050919050565b5f81905092915050565b50565b5f614baa5f83614b92565b9150614bb582614b9c565b5f82019050919050565b5f614bc982614b9f565b9150819050919050565b7f5472616e73666572206661696c656400000000000000000000000000000000005f82015250565b5f614c07600f83614076565b9150614c1282614bd3565b602082019050919050565b5f6020820190508181035f830152614c3481614bfb565b9050919050565b7f50726f7065727479206e6f7420617070726f76656400000000000000000000005f82015250565b5f614c6f601583614076565b9150614c7a82614c3b565b602082019050919050565b5f6020820190508181035f830152614c9c81614c63565b9050919050565b7f50726f7065727479206e6f7420666f756e6400000000000000000000000000005f82015250565b5f614cd7601283614076565b9150614ce282614ca3565b602082019050919050565b5f6020820190508181035f830152614d0481614ccb565b9050919050565b7f4f6e6c79206f776e6572000000000000000000000000000000000000000000005f82015250565b5f614d3f600a83614076565b9150614d4a82614d0b565b602082019050919050565b5f6020820190508181035f830152614d6c81614d33565b9050919050565b7f496e76616c69642072656e7400000000000000000000000000000000000000005f82015250565b5f614da7600c83614076565b9150614db282614d73565b602082019050919050565b5f6020820190508181035f830152614dd481614d9b565b9050919050565b7f496e76616c696420434e494320686173680000000000000000000000000000005f82015250565b5f614e0f601183614076565b9150614e1a82614ddb565b602082019050919050565b5f6020820190508181035f830152614e3c81614e03565b9050919050565b5f604082019050614e565f83018561430a565b614e63602083018461426a565b9392505050565b7f4e6f7420617070726f76656400000000000000000000000000000000000000005f82015250565b5f614e9e600c83614076565b9150614ea982614e6a565b602082019050919050565b5f6020820190508181035f830152614ecb81614e92565b9050919050565b7f416c726561647920746f6b656e697a65640000000000000000000000000000005f82015250565b5f614f06601183614076565b9150614f1182614ed2565b602082019050919050565b5f6020820190508181035f830152614f3381614efa565b9050919050565b7f496e76616c696420737570706c790000000000000000000000000000000000005f82015250565b5f614f6e600e83614076565b9150614f7982614f3a565b602082019050919050565b5f6020820190508181035f830152614f9b81614f62565b9050919050565b5f8160011c9050919050565b5f808291508390505b6001851115614ff757808604811115614fd357614fd26149c4565b5b6001851615614fe25780820291505b8081029050614ff085614fa2565b9450614fb7565b94509492505050565b5f8261500f57600190506150ca565b8161501c575f90506150ca565b8160018114615032576002811461503c5761506b565b60019150506150ca565b60ff84111561504e5761504d6149c4565b5b8360020a915084821115615065576150646149c4565b5b506150ca565b5060208310610133831016604e8410600b84101617156150a05782820a90508381111561509b5761509a6149c4565b5b6150ca565b6150ad8484846001614fae565b925090508184048111156150c4576150c36149c4565b5b81810290505b9392505050565b5f6150db82614170565b91506150e683614370565b92506151137fffffffffffffffffffffffffffffffffffffffffffffffffffffffffffffffff8484615000565b905092915050565b7f4e6f7420746f6b656e697a6564000000000000000000000000000000000000005f82015250565b5f61514f600d83614076565b915061515a8261511b565b602082019050919050565b5f6020820190508181035f83015261517c81615143565b9050919050565b7f4e6f742074656e616e74000000000000000000000000000000000000000000005f82015250565b5f6151b7600a83614076565b91506151c282615183565b602082019050919050565b5f6020820190508181035f8301526151e4816151ab565b9050919050565b7f46756c6c2072656e7420726571756972656400000000000000000000000000005f82015250565b5f61521f601283614076565b915061522a826151eb565b602082019050919050565b5f6020820190508181035f83015261524c81615213565b9050919050565b5f61525d82614170565b915061526883614170565b92508282019050808211156152805761527f6149c4565b5b92915050565b7f4275796572204b5943206e6f74207665726966696564000000000000000000005f82015250565b5f6152ba601683614076565b91506152c582615286565b602082019050919050565b5f6020820190508181035f8301526152e7816152ae565b9050919050565b7f53656c6c6572204b5943206e6f742076657269666965640000000000000000005f82015250565b5f615322601783614076565b915061532d826152ee565b602082019050919050565b5f6020820190508181035f83015261534f81615316565b9050919050565b7f43616e6e6f74206275792066726f6d20796f757273656c6600000000000000005f82015250565b5f61538a601883614076565b915061539582615356565b602082019050919050565b5f6020820190508181035f8301526153b78161537e565b9050919050565b7f496e76616c696420616d6f756e740000000000000000000000000000000000005f82015250565b5f6153f2600e83614076565b91506153fd826153be565b602082019050919050565b5f6020820190508181035f83015261541f816153e6565b9050919050565b7f53656c6c65722068617320696e73756666696369656e7420746f6b656e7300005f82015250565b5f61545a601e83614076565b915061546582615426565b602082019050919050565b5f6020820190508181035f8301526154878161544e565b9050919050565b7f496e636f7272656374204554482073656e7400000000000000000000000000005f82015250565b5f6154c2601283614076565b91506154cd8261548e565b602082019050919050565b5f6020820190508181035f8301526154ef816154b6565b9050919050565b5f6040820190506155095f83018561426a565b615516602083018461426a565b9392505050565b5f819050919050565b5f819050919050565b5f61554961554461553f8461551d565b615526565b614170565b9050919050565b6155598161552f565b82525050565b5f6040820190506155725f83018561426a565b61557f6020830184615550565b9392505050565b7f455448207472616e7366657220746f2073656c6c6572206661696c65640000005f82015250565b5f6155ba601d83614076565b91506155c582615586565b602082019050919050565b5f6020820190508181035f8301526155e7816155ae565b9050919050565b5f6060820190506156015f83018661426a565b61560e602083018561426a565b61561b604083018461426a565b949350505050565b7f496e76616c6964206861736800000000000000000000000000000000000000005f82015250565b5f615657600c83614076565b915061566282615623565b602082019050919050565b5f6020820190508181035f8301526156848161564b565b9050919050565b7f4b594320616c7265616479207375626d697474656400000000000000000000005f82015250565b5f6156bf601583614076565b91506156ca8261568b565b602082019050919050565b5f6020820190508181035f8301526156ec816156b3565b9050919050565b5f6060820190506157065f830186614292565b615713602083018561426a565b615720604083018461426a565b949350505050565b5f60408201905061573b5f830185614292565b615748602083018461430a565b9392505050565b7f446972656374207472616e73666572732064697361626c6564000000000000005f82015250565b5f615783601983614076565b915061578e8261574f565b602082019050919050565b5f6020820190508181035f8301526157b081615777565b905091905056fea264697066735822122076bd2639a6f00222375a130747fdac0ad70a3dd219eb46d52d3c48da3c0b57d564736f6c63430008140033",
  "linkReferences": {},
  "deployedLinkReferences": {},
  "immutableReferences": {},
  "inputSourceName": "project/contracts/RealEstateRWA.sol",
  "buildInfoId": "solc-0_8_20-6de0c1a813c17e3f8b9135fdbac2a3d84bad91e4"
}