{
  "_format": "hh3-artifact-1",
  "contractName": "TenantController",
  "sourceName": "contracts/TenantController.sol",
  "abi": [
    {
      "inputs": [
        {
          "internalType": "address",
          "name": "_rwaAddress",
          "type": "address"
        }
      ],
      "stateMutability": "nonpayable",
      "type": "constructor"
    },
    {
      "inputs": [
        {
          "internalType": "bytes32",
          "name": "propertyHash",
          "type": "bytes32"
        },
        {
          "internalType": "address",
          "name": "seller",
          "type": "address"
        },
        {
          "internalType": "uint256",
          "name": "amount",
          "type": "uint256"
        },
        {
          "internalType": "uint256",
          "name": "pricePerToken",
          "type": "uint256"
        }
      ],
      "name": "buyTokens",
      "outputs": [],
      "stateMutability": "payable",
      "type": "function"
    },
    {
      "inputs": [
        {
          "internalType": "bytes32",
          "name": "propertyHash",
          "type": "bytes32"
        }
      ],
      "name": "payRent",
      "outputs": [],
      "stateMutability": "payable",
      "type": "function"
    },
    {
      "inputs": [],
      "name": "rwa",
      "outputs": [
        {
          "internalType": "contract RealEstateRWA",
          "name": "",
          "type": "address"
        }
      ],
      "stateMutability": "view",
      "type": "function"
    },
    {
      "inputs": [
        {
          "internalType": "bytes32",
          "name": "CNIC",
          "type": "bytes32"
        }
      ],
      "name": "submitKYC",
      "outputs": [],
      "stateMutability": "nonpayable",
      "type": "function"
    },
    {
      "inputs": [
        {
          "internalType": "bytes32",
          "name": "propertyHash",
          "type": "bytes32"
        }
      ],
      "name": "withdrawRent",
      "outputs": [],
      "stateMutability": "nonpayable",
      "type": "function"
    }
  ],
  "bytecode": "0x608060405234801561000f575f80fd5b506040516106e13803806106e1833981810160405281019061003191906100d4565b805f806101000a81548173ffffffffffffffffffffffffffffffffffffffff021916908373ffffffffffffffffffffffffffffffffffffffff160217905550506100ff565b5f80fd5b5f73ffffffffffffffffffffffffffffffffffffffff82169050919050565b5f6100a38261007a565b9050919050565b6100b381610099565b81146100bd575f80fd5b50565b5f815190506100ce816100aa565b92915050565b5f602082840312156100e9576100e8610076565b5b5f6100f6848285016100c0565b91505092915050565b6105d58061010c5f395ff3fe608060405260043610610049575f3560e01c80630383bbce1461004d5780636114de66146100695780638e9e88751461009157806395e4b251146100b9578063c7e9bd6a146100e3575b5f80fd5b61006760048036038101906100629190610413565b6100ff565b005b348015610074575f80fd5b5061008f600480360381019061008a9190610477565b610192565b005b34801561009c575f80fd5b506100b760048036038101906100b29190610477565b61021a565b005b3480156100c4575f80fd5b506100cd6102a2565b6040516100da91906104fd565b60405180910390f35b6100fd60048036038101906100f89190610477565b6102c5565b005b5f8054906101000a900473ffffffffffffffffffffffffffffffffffffffff1673ffffffffffffffffffffffffffffffffffffffff1663f72fd22a34868686866040518663ffffffff1660e01b815260040161015e9493929190610543565b5f604051808303818588803b158015610175575f80fd5b505af1158015610187573d5f803e3d5ffd5b505050505050505050565b5f8054906101000a900473ffffffffffffffffffffffffffffffffffffffff1673ffffffffffffffffffffffffffffffffffffffff1663f844cd7d826040518263ffffffff1660e01b81526004016101ea9190610586565b5f604051808303815f87803b158015610201575f80fd5b505af1158015610213573d5f803e3d5ffd5b5050505050565b5f8054906101000a900473ffffffffffffffffffffffffffffffffffffffff1673ffffffffffffffffffffffffffffffffffffffff16638e9e8875826040518263ffffffff1660e01b81526004016102729190610586565b5f604051808303815f87803b158015610289575f80fd5b505af115801561029b573d5f803e3d5ffd5b5050505050565b5f8054906101000a900473ffffffffffffffffffffffffffffffffffffffff1681565b5f8054906101000a900473ffffffffffffffffffffffffffffffffffffffff1673ffffffffffffffffffffffffffffffffffffffff1663c7e9bd6a34836040518363ffffffff1660e01b815260040161031e9190610586565b5f604051808303818588803b158015610335575f80fd5b505af1158015610347573d5f803e3d5ffd5b505050505050565b5f80fd5b5f819050919050565b61036581610353565b811461036f575f80fd5b50565b5f813590506103808161035c565b92915050565b5f73ffffffffffffffffffffffffffffffffffffffff82169050919050565b5f6103af82610386565b9050919050565b6103bf816103a5565b81146103c9575f80fd5b50565b5f813590506103da816103b6565b92915050565b5f819050919050565b6103f2816103e0565b81146103fc575f80fd5b50565b5f8135905061040d816103e9565b92915050565b5f805f806080858703121561042b5761042a61034f565b5b5f61043887828801610372565b9450506020610449878288016103cc565b935050604061045a878288016103ff565b925050606061046b878288016103ff565b91505092959194509250565b5f6020828403121561048c5761048b61034f565b5b5f61049984828501610372565b91505092915050565b5f819050919050565b5f6104c56104c06104bb84610386565b6104a2565b610386565b9050919050565b5f6104d6826104ab565b9050919050565b5f6104e7826104cc565b9050919050565b6104f7816104dd565b82525050565b5f6020820190506105105f8301846104ee565b92915050565b61051f81610353565b82525050565b61052e816103a5565b82525050565b61053d816103e0565b82525050565b5f6080820190506105565f830187610516565b6105636020830186610525565b6105706040830185610534565b61057d6060830184610534565b95945050505050565b5f6020820190506105995f830184610516565b9291505056fea26469706673582212201c9e2102543a41665783b72c347a9419854095dcbcb717378a7388e665b6f68d64736f6c63430008140033",
  "linkReferences": {},
  "deployedLinkReferences": {},
  "immutableReferences": {},
  "inputSourceName": "project/contracts/TenantController.sol",
  "buildInfoId": "solc-0_8_20-6de0c1a813c17e3f8b9135fdbac2a3d84bad91e4"
}